{"abi":[{"type":"function","name":"UPGRADE_INTERFACE_VERSION","inputs":[],"outputs":[{"name":"","type":"string","internalType":"string"}],"stateMutability":"view"},{"type":"function","name":"claimReward","inputs":[],"outputs":[],"stateMutability":"nonpayable"},{"type":"function","name":"initialize","inputs":[{"name":"_rewardToken","type":"address","internalType":"address"}],"outputs":[],"stateMutability":"nonpayable"},{"type":"function","name":"lastUpdated","inputs":[{"name":"","type":"address","internalType":"address"}],"outputs":[{"name":"","type":"uint256","internalType":"uint256"}],"stateMutability":"view"},{"type":"function","name":"owner","inputs":[],"outputs":[{"name":"","type":"address","internalType":"address"}],"stateMutability":"view"},{"type":"function","name":"proxiableUUID","inputs":[],"outputs":[{"name":"","type":"bytes32","internalType":"bytes32"}],"stateMutability":"view"},{"type":"function","name":"renounceOwnership","inputs":[],"outputs":[],"stateMutability":"nonpayable"},{"type":"function","name":"rewardToken","inputs":[],"outputs":[{"name":"","type":"address","internalType":"contract StakeX"}],"stateMutability":"view"},{"type":"function","name":"stake","inputs":[{"name":"lockDuration","type":"uint256","internalType":"uint256"}],"outputs":[],"stateMutability":"payable"},{"type":"function","name":"stakeBalance","inputs":[{"name":"","type":"address","internalType":"address"}],"outputs":[{"name":"","type":"uint256","internalType":"uint256"}],"stateMutability":"view"},{"type":"function","name":"totalStaked","inputs":[],"outputs":[{"name":"","type":"uint256","internalType":"uint256"}],"stateMutability":"view"},{"type":"function","name":"transferOwnership","inputs":[{"name":"newOwner","type":"address","internalType":"address"}],"outputs":[],"stateMutability":"nonpayable"},{"type":"function","name":"unStakeTime","inputs":[{"name":"","type":"address","internalType":"address"}],"outputs":[{"name":"","type":"uint256","internalType":"uint256"}],"stateMutability":"view"},{"type":"function","name":"unstake","inputs":[],"outputs":[],"stateMutability":"payable"},{"type":"function","name":"upgradeToAndCall","inputs":[{"name":"newImplementation","type":"address","internalType":"address"},{"name":"data","type":"bytes","internalType":"bytes"}],"outputs":[],"stateMutability":"payable"},{"type":"function","name":"userRewards","inputs":[{"name":"","type":"address","internalType":"address"}],"outputs":[{"name":"","type":"uint256","internalType":"uint256"}],"stateMutability":"view"},{"type":"event","name":"Initialized","inputs":[{"name":"version","type":"uint64","indexed":false,"internalType":"uint64"}],"anonymous":false},{"type":"event","name":"OwnershipTransferred","inputs":[{"name":"previousOwner","type":"address","indexed":true,"internalType":"address"},{"name":"newOwner","type":"address","indexed":true,"internalType":"address"}],"anonymous":false},{"type":"event","name":"Upgraded","inputs":[{"name":"implementation","type":"address","indexed":true,"internalType":"address"}],"anonymous":false},{"type":"error","name":"AddressEmptyCode","inputs":[{"name":"target","type":"address","internalType":"address"}]},{"type":"error","name":"ERC1967InvalidImplementation","inputs":[{"name":"implementation","type":"address","internalType":"address"}]},{"type":"error","name":"ERC1967NonPayable","inputs":[]},{"type":"error","name":"FailedCall","inputs":[]},{"type":"error","name":"InvalidInitialization","inputs":[]},{"type":"error","name":"NotInitializing","inputs":[]},{"type":"error","name":"OwnableInvalidOwner","inputs":[{"name":"owner","type":"address","internalType":"address"}]},{"type":"error","name":"OwnableUnauthorizedAccount","inputs":[{"name":"account","type":"address","internalType":"address"}]},{"type":"error","name":"UUPSUnauthorizedCallContext","inputs":[]},{"type":"error","name":"UUPSUnsupportedProxiableUUID","inputs":[{"name":"slot","type":"bytes32","internalType":"bytes32"}]}],"bytecode":{"object":"0x60a06040523073ffffffffffffffffffffffffffffffffffffffff1660809073ffffffffffffffffffffffffffffffffffffffff168152503480156041575f5ffd5b50608051611ee26100685f395f8181610dff01528181610e54015261100e0152611ee25ff3fe6080604052600436106100f2575f3560e01c8063817b1cd211610089578063b88a802f11610058578063b88a802f146102e6578063c4d66de8146102fc578063f2fde38b14610324578063f7c618c11461034c576100f2565b8063817b1cd21461024c5780638da5cb5b14610276578063a694fc3a146102a0578063ad3cb1cc146102bc576100f2565b80634f1ef286116100c55780634f1ef286146101b457806352d1902d146101d057806354f39436146101fa578063715018a614610236576100f2565b80630660f1e8146100f65780630a6f93e6146101325780632def66201461016e5780634e7c57a614610178575b5f5ffd5b348015610101575f5ffd5b5061011c600480360381019061011791906116bd565b610376565b6040516101299190611700565b60405180910390f35b34801561013d575f5ffd5b50610158600480360381019061015391906116bd565b61038b565b6040516101659190611700565b60405180910390f35b6101766103a0565b005b348015610183575f5ffd5b5061019e600480360381019061019991906116bd565b6105b1565b6040516101ab9190611700565b60405180910390f35b6101ce60048036038101906101c99190611855565b6105c6565b005b3480156101db575f5ffd5b506101e46105e5565b6040516101f191906118c7565b60405180910390f35b348015610205575f5ffd5b50610220600480360381019061021b91906116bd565b610616565b60405161022d9190611700565b60405180910390f35b348015610241575f5ffd5b5061024a61062b565b005b348015610257575f5ffd5b5061026061063e565b60405161026d9190611700565b60405180910390f35b348015610281575f5ffd5b5061028a610643565b60405161029791906118ef565b60405180910390f35b6102ba60048036038101906102b59190611932565b610678565b005b3480156102c7575f5ffd5b506102d06107d3565b6040516102dd91906119bd565b60405180910390f35b3480156102f1575f5ffd5b506102fa61080c565b005b348015610307575f5ffd5b50610322600480360381019061031d91906116bd565b6109e6565b005b34801561032f575f5ffd5b5061034a600480360381019061034591906116bd565b610ba7565b005b348015610357575f5ffd5b50610360610c2b565b60405161036d9190611a38565b60405180910390f35b6003602052805f5260405f205f915090505481565b6004602052805f5260405f205f915090505481565b60025f3373ffffffffffffffffffffffffffffffffffffffff1673ffffffffffffffffffffffffffffffffffffffff1681526020019081526020015f2054421015610420576040517f08c379a000000000000000000000000000000000000000000000000000000000815260040161041790611a9b565b60405180910390fd5b5f60015f3373ffffffffffffffffffffffffffffffffffffffff1673ffffffffffffffffffffffffffffffffffffffff1681526020019081526020015f2054905061046a33610c50565b5f60015f3373ffffffffffffffffffffffffffffffffffffffff1673ffffffffffffffffffffffffffffffffffffffff1681526020019081526020015f2081905550805f5f8282546104bc9190611ae6565b925050819055505f60025f3373ffffffffffffffffffffffffffffffffffffffff1673ffffffffffffffffffffffffffffffffffffffff1681526020019081526020015f20819055505f3373ffffffffffffffffffffffffffffffffffffffff168260405161052a90611b46565b5f6040518083038185875af1925050503d805f8114610564576040519150601f19603f3d011682016040523d82523d5f602084013e610569565b606091505b50509050806105ad576040517f08c379a00000000000000000000000000000000000000000000000000000000081526004016105a490611ba4565b60405180910390fd5b5050565b6001602052805f5260405f205f915090505481565b6105ce610dfd565b6105d782610ee3565b6105e18282610eee565b5050565b5f6105ee61100c565b7f360894a13ba1a3210667c828492db98dca3e2076cc3735a920a3ca505d382bbc5f1b905090565b6002602052805f5260405f205f915090505481565b610633611093565b61063c5f61111a565b565b5f5481565b5f5f61064d6111eb565b9050805f015f9054906101000a900473ffffffffffffffffffffffffffffffffffffffff1691505090565b5f34116106ba576040517f08c379a00000000000000000000000000000000000000000000000000000000081526004016106b190611c0c565b60405180910390fd5b6106c333610c50565b345f5f8282546106d39190611c2a565b925050819055503460015f3373ffffffffffffffffffffffffffffffffffffffff1673ffffffffffffffffffffffffffffffffffffffff1681526020019081526020015f205f8282546107269190611c2a565b925050819055505f814261073a9190611c2a565b905060025f3373ffffffffffffffffffffffffffffffffffffffff1673ffffffffffffffffffffffffffffffffffffffff1681526020019081526020015f20548111156107cf57814261078d9190611c2a565b60025f3373ffffffffffffffffffffffffffffffffffffffff1673ffffffffffffffffffffffffffffffffffffffff1681526020019081526020015f20819055505b5050565b6040518060400160405280600581526020017f352e302e3000000000000000000000000000000000000000000000000000000081525081565b60025f3373ffffffffffffffffffffffffffffffffffffffff1673ffffffffffffffffffffffffffffffffffffffff1681526020019081526020015f205442101561088c576040517f08c379a000000000000000000000000000000000000000000000000000000000815260040161088390611ca7565b60405180910390fd5b61089533610c50565b5f60035f3373ffffffffffffffffffffffffffffffffffffffff1673ffffffffffffffffffffffffffffffffffffffff1681526020019081526020015f205490505f8111610918576040517f08c379a000000000000000000000000000000000000000000000000000000000815260040161090f90611d0f565b60405180910390fd5b5f60035f3373ffffffffffffffffffffffffffffffffffffffff1673ffffffffffffffffffffffffffffffffffffffff1681526020019081526020015f208190555060055f9054906101000a900473ffffffffffffffffffffffffffffffffffffffff1673ffffffffffffffffffffffffffffffffffffffff166340c10f1933836040518363ffffffff1660e01b81526004016109b6929190611d2d565b5f604051808303815f87803b1580156109cd575f5ffd5b505af11580156109df573d5f5f3e3d5ffd5b5050505050565b5f6109ef611212565b90505f815f0160089054906101000a900460ff161590505f825f015f9054906101000a900467ffffffffffffffff1690505f5f8267ffffffffffffffff16148015610a375750825b90505f60018367ffffffffffffffff16148015610a6a57505f3073ffffffffffffffffffffffffffffffffffffffff163b145b905081158015610a78575080155b15610aaf576040517ff92ee8a900000000000000000000000000000000000000000000000000000000815260040160405180910390fd5b6001855f015f6101000a81548167ffffffffffffffff021916908367ffffffffffffffff1602179055508315610afc576001855f0160086101000a81548160ff0219169083151502179055505b610b0533611225565b8560055f6101000a81548173ffffffffffffffffffffffffffffffffffffffff021916908373ffffffffffffffffffffffffffffffffffffffff1602179055508315610b9f575f855f0160086101000a81548160ff0219169083151502179055507fc7f505b2f371ae2175ee4913f4499e1f2633a7b5936321eed1cdaeb6115181d26001604051610b969190611da0565b60405180910390a15b505050505050565b610baf611093565b5f73ffffffffffffffffffffffffffffffffffffffff168173ffffffffffffffffffffffffffffffffffffffff1603610c1f575f6040517f1e4fbdf7000000000000000000000000000000000000000000000000000000008152600401610c1691906118ef565b60405180910390fd5b610c288161111a565b50565b60055f9054906101000a900473ffffffffffffffffffffffffffffffffffffffff1681565b5f60015f8373ffffffffffffffffffffffffffffffffffffffff1673ffffffffffffffffffffffffffffffffffffffff1681526020019081526020015f205490505f8103610ce0574260045f8473ffffffffffffffffffffffffffffffffffffffff1673ffffffffffffffffffffffffffffffffffffffff1681526020019081526020015f208190555050610dfa565b5f60045f8473ffffffffffffffffffffffffffffffffffffffff1673ffffffffffffffffffffffffffffffffffffffff1681526020019081526020015f205442610d2a9190611ae6565b90505f6777e772392b600000670de0b6b3a76400008385610d4b9190611db9565b610d559190611db9565b610d5f9190611e27565b90508060035f8673ffffffffffffffffffffffffffffffffffffffff1673ffffffffffffffffffffffffffffffffffffffff1681526020019081526020015f205f828254610dad9190611c2a565b925050819055504260045f8673ffffffffffffffffffffffffffffffffffffffff1673ffffffffffffffffffffffffffffffffffffffff1681526020019081526020015f20819055505050505b50565b7f000000000000000000000000000000000000000000000000000000000000000073ffffffffffffffffffffffffffffffffffffffff163073ffffffffffffffffffffffffffffffffffffffff161480610eaa57507f000000000000000000000000000000000000000000000000000000000000000073ffffffffffffffffffffffffffffffffffffffff16610e91611239565b73ffffffffffffffffffffffffffffffffffffffff1614155b15610ee1576040517fe07c8dba00000000000000000000000000000000000000000000000000000000815260040160405180910390fd5b565b610eeb611093565b50565b8173ffffffffffffffffffffffffffffffffffffffff166352d1902d6040518163ffffffff1660e01b8152600401602060405180830381865afa925050508015610f5657506040513d601f19601f82011682018060405250810190610f539190611e81565b60015b610f9757816040517f4c9c8ce3000000000000000000000000000000000000000000000000000000008152600401610f8e91906118ef565b60405180910390fd5b7f360894a13ba1a3210667c828492db98dca3e2076cc3735a920a3ca505d382bbc5f1b8114610ffd57806040517faa1d49a4000000000000000000000000000000000000000000000000000000008152600401610ff491906118c7565b60405180910390fd5b611007838361128c565b505050565b7f000000000000000000000000000000000000000000000000000000000000000073ffffffffffffffffffffffffffffffffffffffff163073ffffffffffffffffffffffffffffffffffffffff1614611091576040517fe07c8dba00000000000000000000000000000000000000000000000000000000815260040160405180910390fd5b565b61109b6112fe565b73ffffffffffffffffffffffffffffffffffffffff166110b9610643565b73ffffffffffffffffffffffffffffffffffffffff1614611118576110dc6112fe565b6040517f118cdaa700000000000000000000000000000000000000000000000000000000815260040161110f91906118ef565b60405180910390fd5b565b5f6111236111eb565b90505f815f015f9054906101000a900473ffffffffffffffffffffffffffffffffffffffff16905082825f015f6101000a81548173ffffffffffffffffffffffffffffffffffffffff021916908373ffffffffffffffffffffffffffffffffffffffff1602179055508273ffffffffffffffffffffffffffffffffffffffff168173ffffffffffffffffffffffffffffffffffffffff167f8be0079c531659141344cd1fd0a4f28419497f9722a3daafe3b4186f6b6457e060405160405180910390a3505050565b5f7f9016d09d72d40fdae2fd8ceac6b6234c7706214fd39c1cd1e609a0528c199300905090565b5f5f61121c611305565b90508091505090565b61122d61132e565b6112368161136e565b50565b5f6112657f360894a13ba1a3210667c828492db98dca3e2076cc3735a920a3ca505d382bbc5f1b6113f2565b5f015f9054906101000a900473ffffffffffffffffffffffffffffffffffffffff16905090565b611295826113fb565b8173ffffffffffffffffffffffffffffffffffffffff167fbc7cd75a20ee27fd9adebab32041f755214dbc6bffa90cc0225b39da2e5c2d3b60405160405180910390a25f815111156112f1576112eb82826114c4565b506112fa565b6112f96115b5565b5b5050565b5f33905090565b5f7ff0c57e16840df040f15088dc2f81fe391c3923bec73e23a9662efc9c229c6a005f1b905090565b6113366115f1565b61136c576040517fd7e6bcf800000000000000000000000000000000000000000000000000000000815260040160405180910390fd5b565b61137661132e565b5f73ffffffffffffffffffffffffffffffffffffffff168173ffffffffffffffffffffffffffffffffffffffff16036113e6575f6040517f1e4fbdf70000000000000000000000000000000000000000000000000000000081526004016113dd91906118ef565b60405180910390fd5b6113ef8161111a565b50565b5f819050919050565b5f8173ffffffffffffffffffffffffffffffffffffffff163b0361145657806040517f4c9c8ce300000000000000000000000000000000000000000000000000000000815260040161144d91906118ef565b60405180910390fd5b806114827f360894a13ba1a3210667c828492db98dca3e2076cc3735a920a3ca505d382bbc5f1b6113f2565b5f015f6101000a81548173ffffffffffffffffffffffffffffffffffffffff021916908373ffffffffffffffffffffffffffffffffffffffff16021790555050565b60605f6114d1848461160f565b905080801561150757505f6114e4611623565b118061150657505f8473ffffffffffffffffffffffffffffffffffffffff163b115b5b1561151c5761151461162a565b9150506115af565b801561155f57836040517f9996b31500000000000000000000000000000000000000000000000000000000815260040161155691906118ef565b60405180910390fd5b5f611568611623565b111561157b57611576611647565b6115ad565b6040517fd6bda27500000000000000000000000000000000000000000000000000000000815260040160405180910390fd5b505b92915050565b5f3411156115ef576040517fb398979f00000000000000000000000000000000000000000000000000000000815260040160405180910390fd5b565b5f6115fa611212565b5f0160089054906101000a900460ff16905090565b5f5f5f835160208501865af4905092915050565b5f3d905090565b606060405190503d81523d5f602083013e3d602001810160405290565b6040513d5f823e3d81fd5b5f604051905090565b5f5ffd5b5f5ffd5b5f73ffffffffffffffffffffffffffffffffffffffff82169050919050565b5f61168c82611663565b9050919050565b61169c81611682565b81146116a6575f5ffd5b50565b5f813590506116b781611693565b92915050565b5f602082840312156116d2576116d161165b565b5b5f6116df848285016116a9565b91505092915050565b5f819050919050565b6116fa816116e8565b82525050565b5f6020820190506117135f8301846116f1565b92915050565b5f5ffd5b5f5ffd5b5f601f19601f8301169050919050565b7f4e487b71000000000000000000000000000000000000000000000000000000005f52604160045260245ffd5b61176782611721565b810181811067ffffffffffffffff8211171561178657611785611731565b5b80604052505050565b5f611798611652565b90506117a4828261175e565b919050565b5f67ffffffffffffffff8211156117c3576117c2611731565b5b6117cc82611721565b9050602081019050919050565b828183375f83830152505050565b5f6117f96117f4846117a9565b61178f565b9050828152602081018484840111156118155761181461171d565b5b6118208482856117d9565b509392505050565b5f82601f83011261183c5761183b611719565b5b813561184c8482602086016117e7565b91505092915050565b5f5f6040838503121561186b5761186a61165b565b5b5f611878858286016116a9565b925050602083013567ffffffffffffffff8111156118995761189861165f565b5b6118a585828601611828565b9150509250929050565b5f819050919050565b6118c1816118af565b82525050565b5f6020820190506118da5f8301846118b8565b92915050565b6118e981611682565b82525050565b5f6020820190506119025f8301846118e0565b92915050565b611911816116e8565b811461191b575f5ffd5b50565b5f8135905061192c81611908565b92915050565b5f602082840312156119475761194661165b565b5b5f6119548482850161191e565b91505092915050565b5f81519050919050565b5f82825260208201905092915050565b8281835e5f83830152505050565b5f61198f8261195d565b6119998185611967565b93506119a9818560208601611977565b6119b281611721565b840191505092915050565b5f6020820190508181035f8301526119d58184611985565b905092915050565b5f819050919050565b5f611a006119fb6119f684611663565b6119dd565b611663565b9050919050565b5f611a11826119e6565b9050919050565b5f611a2282611a07565b9050919050565b611a3281611a18565b82525050565b5f602082019050611a4b5f830184611a29565b92915050565b7f4c6f636b656400000000000000000000000000000000000000000000000000005f82015250565b5f611a85600683611967565b9150611a9082611a51565b602082019050919050565b5f6020820190508181035f830152611ab281611a79565b9050919050565b7f4e487b71000000000000000000000000000000000000000000000000000000005f52601160045260245ffd5b5f611af0826116e8565b9150611afb836116e8565b9250828203905081811115611b1357611b12611ab9565b5b92915050565b5f81905092915050565b50565b5f611b315f83611b19565b9150611b3c82611b23565b5f82019050919050565b5f611b5082611b26565b9150819050919050565b7f45746820556e7374616b65205472616e73666572206661696c656400000000005f82015250565b5f611b8e601b83611967565b9150611b9982611b5a565b602082019050919050565b5f6020820190508181035f830152611bbb81611b82565b9050919050565b7f5a65726f205374616b65000000000000000000000000000000000000000000005f82015250565b5f611bf6600a83611967565b9150611c0182611bc2565b602082019050919050565b5f6020820190508181035f830152611c2381611bea565b9050919050565b5f611c34826116e8565b9150611c3f836116e8565b9250828201905080821115611c5757611c56611ab9565b5b92915050565b7f6c6f636b206e6f742066696e69736865640000000000000000000000000000005f82015250565b5f611c91601183611967565b9150611c9c82611c5d565b602082019050919050565b5f6020820190508181035f830152611cbe81611c85565b9050919050565b7f4e6f20636c61696d61626c6520726577617264207965740000000000000000005f82015250565b5f611cf9601783611967565b9150611d0482611cc5565b602082019050919050565b5f6020820190508181035f830152611d2681611ced565b9050919050565b5f604082019050611d405f8301856118e0565b611d4d60208301846116f1565b9392505050565b5f819050919050565b5f67ffffffffffffffff82169050919050565b5f611d8a611d85611d8084611d54565b6119dd565b611d5d565b9050919050565b611d9a81611d70565b82525050565b5f602082019050611db35f830184611d91565b92915050565b5f611dc3826116e8565b9150611dce836116e8565b9250828202611ddc816116e8565b91508282048414831517611df357611df2611ab9565b5b5092915050565b7f4e487b71000000000000000000000000000000000000000000000000000000005f52601260045260245ffd5b5f611e31826116e8565b9150611e3c836116e8565b925082611e4c57611e4b611dfa565b5b828204905092915050565b611e60816118af565b8114611e6a575f5ffd5b50565b5f81519050611e7b81611e57565b92915050565b5f60208284031215611e9657611e9561165b565b5b5f611ea384828501611e6d565b9150509291505056fea2646970667358221220a67bb8f26d29e7e1040f03ab1799e94e02612002b1581fee43af13d6ec99accb64736f6c63430008210033","linkReferences":{}},"methodIdentifiers":{"UPGRADE_INTERFACE_VERSION()":"ad3cb1cc","claimReward()":"b88a802f","initialize(address)":"c4d66de8","lastUpdated(address)":"0a6f93e6","owner()":"8da5cb5b","proxiableUUID()":"52d1902d","renounceOwnership()":"715018a6","rewardToken()":"f7c618c1","stake(uint256)":"a694fc3a","stakeBalance(address)":"4e7c57a6","totalStaked()":"817b1cd2","transferOwnership(address)":"f2fde38b","unStakeTime(address)":"54f39436","unstake()":"2def6620","upgradeToAndCall(address,bytes)":"4f1ef286","userRewards(address)":"0660f1e8"},"id":42}