{"abi":[{"type":"constructor","inputs":[],"stateMutability":"nonpayable"},{"type":"function","name":"stake","inputs":[{"name":"amount","type":"uint256","internalType":"uint256"},{"name":"_time","type":"uint256","internalType":"uint256"}],"outputs":[],"stateMutability":"payable"},{"type":"function","name":"stakedBalance","inputs":[{"name":"","type":"address","internalType":"address"}],"outputs":[{"name":"","type":"uint256","internalType":"uint256"}],"stateMutability":"view"},{"type":"function","name":"stakedTime","inputs":[{"name":"","type":"address","internalType":"address"}],"outputs":[{"name":"","type":"uint256","internalType":"uint256"}],"stateMutability":"view"},{"type":"function","name":"totalStaked","inputs":[],"outputs":[{"name":"","type":"uint256","internalType":"uint256"}],"stateMutability":"view"},{"type":"function","name":"unstake","inputs":[{"name":"amount","type":"uint256","internalType":"uint256"}],"outputs":[],"stateMutability":"payable"},{"type":"function","name":"userRewards","inputs":[{"name":"","type":"address","internalType":"address"}],"outputs":[{"name":"","type":"uint256","internalType":"uint256"}],"stateMutability":"view"}],"bytecode":{"object":"0x6080604052348015600e575f5ffd5b5030604051601a90607e565b6022919060c6565b604051809103905ff080158015603a573d5f5f3e3d5ffd5b5060015f6101000a81548173ffffffffffffffffffffffffffffffffffffffff021916908373ffffffffffffffffffffffffffffffffffffffff16021790555060dd565b61146880610abf83390190565b5f73ffffffffffffffffffffffffffffffffffffffff82169050919050565b5f60b282608b565b9050919050565b60c08160aa565b82525050565b5f60208201905060d75f83018460b9565b92915050565b6109d5806100ea5f395ff3fe608060405260043610610054575f3560e01c80630660f1e81461005857806306709555146100945780632e17de78146100d057806360217267146100ec5780637b0472f014610128578063817b1cd214610144575b5f5ffd5b348015610063575f5ffd5b5061007e6004803603810190610079919061059e565b61016e565b60405161008b91906105e1565b60405180910390f35b34801561009f575f5ffd5b506100ba60048036038101906100b5919061059e565b610183565b6040516100c791906105e1565b60405180910390f35b6100ea60048036038101906100e59190610624565b610198565b005b3480156100f7575f5ffd5b50610112600480360381019061010d919061059e565b6103f0565b60405161011f91906105e1565b60405180910390f35b610142600480360381019061013d919061064f565b610405565b005b34801561014f575f5ffd5b5061015861053a565b60405161016591906105e1565b60405180910390f35b6004602052805f5260405f205f915090505481565b6005602052805f5260405f205f915090505481565b60035f3373ffffffffffffffffffffffffffffffffffffffff1673ffffffffffffffffffffffffffffffffffffffff1681526020019081526020015f2054811115610218576040517f08c379a000000000000000000000000000000000000000000000000000000000815260040161020f906106e7565b60405180910390fd5b60055f3373ffffffffffffffffffffffffffffffffffffffff1673ffffffffffffffffffffffffffffffffffffffff1681526020019081526020015f20544211610297576040517f08c379a000000000000000000000000000000000000000000000000000000000815260040161028e9061074f565b60405180910390fd5b8060025f8282546102a8919061079a565b925050819055508060035f3373ffffffffffffffffffffffffffffffffffffffff1673ffffffffffffffffffffffffffffffffffffffff1681526020019081526020015f205f8282546102fb919061079a565b925050819055505f60055f3373ffffffffffffffffffffffffffffffffffffffff1673ffffffffffffffffffffffffffffffffffffffff1681526020019081526020015f20819055505f3373ffffffffffffffffffffffffffffffffffffffff1682604051610369906107fa565b5f6040518083038185875af1925050503d805f81146103a3576040519150601f19603f3d011682016040523d82523d5f602084013e6103a8565b606091505b50509050806103ec576040517f08c379a00000000000000000000000000000000000000000000000000000000081526004016103e390610858565b60405180910390fd5b5050565b6003602052805f5260405f205f915090505481565b5f8211610447576040517f08c379a000000000000000000000000000000000000000000000000000000000815260040161043e906108c0565b60405180910390fd5b813414610489576040517f08c379a00000000000000000000000000000000000000000000000000000000081526004016104809061094e565b60405180910390fd5b8160025f82825461049a919061096c565b925050819055508160035f3373ffffffffffffffffffffffffffffffffffffffff1673ffffffffffffffffffffffffffffffffffffffff1681526020019081526020015f205f8282546104ed919061096c565b925050819055508060055f3373ffffffffffffffffffffffffffffffffffffffff1673ffffffffffffffffffffffffffffffffffffffff1681526020019081526020015f20819055505050565b60025481565b5f5ffd5b5f73ffffffffffffffffffffffffffffffffffffffff82169050919050565b5f61056d82610544565b9050919050565b61057d81610563565b8114610587575f5ffd5b50565b5f8135905061059881610574565b92915050565b5f602082840312156105b3576105b2610540565b5b5f6105c08482850161058a565b91505092915050565b5f819050919050565b6105db816105c9565b82525050565b5f6020820190506105f45f8301846105d2565b92915050565b610603816105c9565b811461060d575f5ffd5b50565b5f8135905061061e816105fa565b92915050565b5f6020828403121561063957610638610540565b5b5f61064684828501610610565b91505092915050565b5f5f6040838503121561066557610664610540565b5b5f61067285828601610610565b925050602061068385828601610610565b9150509250929050565b5f82825260208201905092915050565b7f4e6f7420656e6f7567682062616c616e636500000000000000000000000000005f82015250565b5f6106d160128361068d565b91506106dc8261069d565b602082019050919050565b5f6020820190508181035f8301526106fe816106c5565b9050919050565b7f5374616b696e6720706572696f64206973206e6f74206f7665720000000000005f82015250565b5f610739601a8361068d565b915061074482610705565b602082019050919050565b5f6020820190508181035f8301526107668161072d565b9050919050565b7f4e487b71000000000000000000000000000000000000000000000000000000005f52601160045260245ffd5b5f6107a4826105c9565b91506107af836105c9565b92508282039050818111156107c7576107c661076d565b5b92915050565b5f81905092915050565b50565b5f6107e55f836107cd565b91506107f0826107d7565b5f82019050919050565b5f610804826107da565b9150819050919050565b7f5472616e73666572206661696c656400000000000000000000000000000000005f82015250565b5f610842600f8361068d565b915061084d8261080e565b602082019050919050565b5f6020820190508181035f83015261086f81610836565b9050919050565b7f416d6f756e74206d7573742062652067726561746572207468616e20300000005f82015250565b5f6108aa601d8361068d565b91506108b582610876565b602082019050919050565b5f6020820190508181035f8301526108d78161089e565b9050919050565b7f416d6f756e74206d75737420626520657175616c20746f206d73672e76616c755f8201527f6500000000000000000000000000000000000000000000000000000000000000602082015250565b5f61093860218361068d565b9150610943826108de565b604082019050919050565b5f6020820190508181035f8301526109658161092c565b9050919050565b5f610976826105c9565b9150610981836105c9565b92508282019050808211156109995761099861076d565b5b9291505056fea2646970667358221220d8f91ca68ee285c82831310aca45e06373527c828a3c9b6519285911ee3cd3cf64736f6c63430008210033608060405234801561000f575f5ffd5b5060405161146838038061146883398181016040528101906100319190610163565b6040518060400160405280600681526020017f4170436f696e00000000000000000000000000000000000000000000000000008152506040518060400160405280600681526020017f4150436f696e000000000000000000000000000000000000000000000000000081525081600390816100ac91906103dc565b5080600490816100bc91906103dc565b5050508060055f6101000a81548173ffffffffffffffffffffffffffffffffffffffff021916908373ffffffffffffffffffffffffffffffffffffffff160217905550506104ab565b5f5ffd5b5f73ffffffffffffffffffffffffffffffffffffffff82169050919050565b5f61013282610109565b9050919050565b61014281610128565b811461014c575f5ffd5b50565b5f8151905061015d81610139565b92915050565b5f6020828403121561017857610177610105565b5b5f6101858482850161014f565b91505092915050565b5f81519050919050565b7f4e487b71000000000000000000000000000000000000000000000000000000005f52604160045260245ffd5b7f4e487b71000000000000000000000000000000000000000000000000000000005f52602260045260245ffd5b5f600282049050600182168061020957607f821691505b60208210810361021c5761021b6101c5565b5b50919050565b5f819050815f5260205f209050919050565b5f6020601f8301049050919050565b5f82821b905092915050565b5f6008830261027e7fffffffffffffffffffffffffffffffffffffffffffffffffffffffffffffffff82610243565b6102888683610243565b95508019841693508086168417925050509392505050565b5f819050919050565b5f819050919050565b5f6102cc6102c76102c2846102a0565b6102a9565b6102a0565b9050919050565b5f819050919050565b6102e5836102b2565b6102f96102f1826102d3565b84845461024f565b825550505050565b5f5f905090565b610310610301565b61031b8184846102dc565b505050565b5f5b82811015610341576103365f828401610308565b600181019050610322565b505050565b601f82111561039457828211156103935761036081610222565b61036983610234565b61037285610234565b602086101561037f575f90505b80830161038e82840382610320565b505050505b5b505050565b5f82821c905092915050565b5f6103b45f1984600802610399565b1980831691505092915050565b5f6103cc83836103a5565b9150826002028217905092915050565b6103e58261018e565b67ffffffffffffffff8111156103fe576103fd610198565b5b61040882546101f2565b610413828285610346565b5f60209050601f831160018114610444575f8415610432578287015190505b61043c85826103c1565b8655506104a3565b601f19841661045286610222565b5f5b8281101561047957848901518255600182019150602085019450602081019050610454565b868310156104965784890151610492601f8916826103a5565b8355505b6001600288020188555050505b505050505050565b610fb0806104b85f395ff3fe608060405234801561000f575f5ffd5b50600436106100a7575f3560e01c806340c10f191161006f57806340c10f191461016557806370a082311461018157806395d89b41146101b1578063a9059cbb146101cf578063dd62ed3e146101ff578063e3db17b81461022f576100a7565b806306fdde03146100ab578063095ea7b3146100c957806318160ddd146100f957806323b872dd14610117578063313ce56714610147575b5f5ffd5b6100b361024b565b6040516100c09190610c29565b60405180910390f35b6100e360048036038101906100de9190610cda565b6102db565b6040516100f09190610d32565b60405180910390f35b6101016102fd565b60405161010e9190610d5a565b60405180910390f35b610131600480360381019061012c9190610d73565b610306565b60405161013e9190610d32565b60405180910390f35b61014f610334565b60405161015c9190610dde565b60405180910390f35b61017f600480360381019061017a9190610cda565b61033c565b005b61019b60048036038101906101969190610df7565b6103a2565b6040516101a89190610d5a565b60405180910390f35b6101b96103e7565b6040516101c69190610c29565b60405180910390f35b6101e960048036038101906101e49190610cda565b610477565b6040516101f69190610d32565b60405180910390f35b61021960048036038101906102149190610e22565b610499565b6040516102269190610d5a565b60405180910390f35b61024960048036038101906102449190610df7565b61051b565b005b60606003805461025a90610e8d565b80601f016020809104026020016040519081016040528092919081815260200182805461028690610e8d565b80156102d15780601f106102a8576101008083540402835291602001916102d1565b820191905f5260205f20905b8154815290600101906020018083116102b457829003601f168201915b5050505050905090565b5f5f6102e56105b6565b90506102f28185856105bd565b600191505092915050565b5f600254905090565b5f5f6103106105b6565b905061031d8582856105cf565b610328858585610662565b60019150509392505050565b5f6012905090565b60055f9054906101000a900473ffffffffffffffffffffffffffffffffffffffff1673ffffffffffffffffffffffffffffffffffffffff163373ffffffffffffffffffffffffffffffffffffffff1614610394575f5ffd5b61039e8282610752565b5050565b5f5f5f8373ffffffffffffffffffffffffffffffffffffffff1673ffffffffffffffffffffffffffffffffffffffff1681526020019081526020015f20549050919050565b6060600480546103f690610e8d565b80601f016020809104026020016040519081016040528092919081815260200182805461042290610e8d565b801561046d5780601f106104445761010080835404028352916020019161046d565b820191905f5260205f20905b81548152906001019060200180831161045057829003601f168201915b5050505050905090565b5f5f6104816105b6565b905061048e818585610662565b600191505092915050565b5f60015f8473ffffffffffffffffffffffffffffffffffffffff1673ffffffffffffffffffffffffffffffffffffffff1681526020019081526020015f205f8373ffffffffffffffffffffffffffffffffffffffff1673ffffffffffffffffffffffffffffffffffffffff1681526020019081526020015f2054905092915050565b60055f9054906101000a900473ffffffffffffffffffffffffffffffffffffffff1673ffffffffffffffffffffffffffffffffffffffff163373ffffffffffffffffffffffffffffffffffffffff1614610573575f5ffd5b8060055f6101000a81548173ffffffffffffffffffffffffffffffffffffffff021916908373ffffffffffffffffffffffffffffffffffffffff16021790555050565b5f33905090565b6105ca83838360016107d1565b505050565b5f6105da8484610499565b90507fffffffffffffffffffffffffffffffffffffffffffffffffffffffffffffffff81101561065c578181101561064d578281836040517ffb8f41b200000000000000000000000000000000000000000000000000000000815260040161064493929190610ecc565b60405180910390fd5b61065b84848484035f6107d1565b5b50505050565b5f73ffffffffffffffffffffffffffffffffffffffff168373ffffffffffffffffffffffffffffffffffffffff16036106d2575f6040517f96c6fd1e0000000000000000000000000000000000000000000000000000000081526004016106c99190610f01565b60405180910390fd5b5f73ffffffffffffffffffffffffffffffffffffffff168273ffffffffffffffffffffffffffffffffffffffff1603610742575f6040517fec442f050000000000000000000000000000000000000000000000000000000081526004016107399190610f01565b60405180910390fd5b61074d8383836109a0565b505050565b5f73ffffffffffffffffffffffffffffffffffffffff168273ffffffffffffffffffffffffffffffffffffffff16036107c2575f6040517fec442f050000000000000000000000000000000000000000000000000000000081526004016107b99190610f01565b60405180910390fd5b6107cd5f83836109a0565b5050565b5f73ffffffffffffffffffffffffffffffffffffffff168473ffffffffffffffffffffffffffffffffffffffff1603610841575f6040517fe602df050000000000000000000000000000000000000000000000000000000081526004016108389190610f01565b60405180910390fd5b5f73ffffffffffffffffffffffffffffffffffffffff168373ffffffffffffffffffffffffffffffffffffffff16036108b1575f6040517f94280d620000000000000000000000000000000000000000000000000000000081526004016108a89190610f01565b60405180910390fd5b8160015f8673ffffffffffffffffffffffffffffffffffffffff1673ffffffffffffffffffffffffffffffffffffffff1681526020019081526020015f205f8573ffffffffffffffffffffffffffffffffffffffff1673ffffffffffffffffffffffffffffffffffffffff1681526020019081526020015f2081905550801561099a578273ffffffffffffffffffffffffffffffffffffffff168473ffffffffffffffffffffffffffffffffffffffff167f8c5be1e5ebec7d5bd14f71427d1e84f3dd0314c0f7b2291e5b200ac8c7c3b925846040516109919190610d5a565b60405180910390a35b50505050565b5f73ffffffffffffffffffffffffffffffffffffffff168373ffffffffffffffffffffffffffffffffffffffff16036109f0578060025f8282546109e49190610f47565b92505081905550610abe565b5f5f5f8573ffffffffffffffffffffffffffffffffffffffff1673ffffffffffffffffffffffffffffffffffffffff1681526020019081526020015f2054905081811015610a79578381836040517fe450d38c000000000000000000000000000000000000000000000000000000008152600401610a7093929190610ecc565b60405180910390fd5b8181035f5f8673ffffffffffffffffffffffffffffffffffffffff1673ffffffffffffffffffffffffffffffffffffffff1681526020019081526020015f2081905550505b5f73ffffffffffffffffffffffffffffffffffffffff168273ffffffffffffffffffffffffffffffffffffffff1603610b05578060025f8282540392505081905550610b4f565b805f5f8473ffffffffffffffffffffffffffffffffffffffff1673ffffffffffffffffffffffffffffffffffffffff1681526020019081526020015f205f82825401925050819055505b8173ffffffffffffffffffffffffffffffffffffffff168373ffffffffffffffffffffffffffffffffffffffff167fddf252ad1be2c89b69c2b068fc378daa952ba7f163c4a11628f55a4df523b3ef83604051610bac9190610d5a565b60405180910390a3505050565b5f81519050919050565b5f82825260208201905092915050565b8281835e5f83830152505050565b5f601f19601f8301169050919050565b5f610bfb82610bb9565b610c058185610bc3565b9350610c15818560208601610bd3565b610c1e81610be1565b840191505092915050565b5f6020820190508181035f830152610c418184610bf1565b905092915050565b5f5ffd5b5f73ffffffffffffffffffffffffffffffffffffffff82169050919050565b5f610c7682610c4d565b9050919050565b610c8681610c6c565b8114610c90575f5ffd5b50565b5f81359050610ca181610c7d565b92915050565b5f819050919050565b610cb981610ca7565b8114610cc3575f5ffd5b50565b5f81359050610cd481610cb0565b92915050565b5f5f60408385031215610cf057610cef610c49565b5b5f610cfd85828601610c93565b9250506020610d0e85828601610cc6565b9150509250929050565b5f8115159050919050565b610d2c81610d18565b82525050565b5f602082019050610d455f830184610d23565b92915050565b610d5481610ca7565b82525050565b5f602082019050610d6d5f830184610d4b565b92915050565b5f5f5f60608486031215610d8a57610d89610c49565b5b5f610d9786828701610c93565b9350506020610da886828701610c93565b9250506040610db986828701610cc6565b9150509250925092565b5f60ff82169050919050565b610dd881610dc3565b82525050565b5f602082019050610df15f830184610dcf565b92915050565b5f60208284031215610e0c57610e0b610c49565b5b5f610e1984828501610c93565b91505092915050565b5f5f60408385031215610e3857610e37610c49565b5b5f610e4585828601610c93565b9250506020610e5685828601610c93565b9150509250929050565b7f4e487b71000000000000000000000000000000000000000000000000000000005f52602260045260245ffd5b5f6002820490506001821680610ea457607f821691505b602082108103610eb757610eb6610e60565b5b50919050565b610ec681610c6c565b82525050565b5f606082019050610edf5f830186610ebd565b610eec6020830185610d4b565b610ef96040830184610d4b565b949350505050565b5f602082019050610f145f830184610ebd565b92915050565b7f4e487b71000000000000000000000000000000000000000000000000000000005f52601160045260245ffd5b5f610f5182610ca7565b9150610f5c83610ca7565b9250828201905080821115610f7457610f73610f1a565b5b9291505056fea26469706673582212201a4c8d351346410cf288bc80d447f2ac73e6609b7b8eacd50b96175a6aaa22d264736f6c63430008210033","linkReferences":{}},"methodIdentifiers":{"stake(uint256,uint256)":"7b0472f0","stakedBalance(address)":"60217267","stakedTime(address)":"06709555","totalStaked()":"817b1cd2","unstake(uint256)":"2e17de78","userRewards(address)":"0660f1e8"},"id":26}