{"abi":[{"type":"function","name":"stake","inputs":[{"name":"amount","type":"uint256","internalType":"uint256"}],"outputs":[],"stateMutability":"payable"},{"type":"function","name":"stakedBalances","inputs":[{"name":"","type":"address","internalType":"address"}],"outputs":[{"name":"","type":"uint256","internalType":"uint256"}],"stateMutability":"view"},{"type":"function","name":"totalStaked","inputs":[],"outputs":[{"name":"","type":"uint256","internalType":"uint256"}],"stateMutability":"view"},{"type":"function","name":"unstake","inputs":[{"name":"amount","type":"uint256","internalType":"uint256"}],"outputs":[],"stateMutability":"payable"}],"bytecode":{"object":"0x6080604052348015600e575f5ffd5b506107738061001c5f395ff3fe60806040526004361061003e575f3560e01c80631460fa87146100425780632e17de781461007e578063817b1cd21461009a578063a694fc3a146100c4575b5f5ffd5b34801561004d575f5ffd5b50610068600480360381019061006391906103e2565b6100e0565b6040516100759190610425565b60405180910390f35b61009860048036038101906100939190610468565b6100f5565b005b3480156100a5575f5ffd5b506100ae61028c565b6040516100bb9190610425565b60405180910390f35b6100de60048036038101906100d99190610468565b610292565b005b6002602052805f5260405f205f915090505481565b60025f3373ffffffffffffffffffffffffffffffffffffffff1673ffffffffffffffffffffffffffffffffffffffff1681526020019081526020015f2054811115610175576040517f08c379a000000000000000000000000000000000000000000000000000000000815260040161016c906104ed565b60405180910390fd5b8060015f8282546101869190610538565b925050819055508060025f3373ffffffffffffffffffffffffffffffffffffffff1673ffffffffffffffffffffffffffffffffffffffff1681526020019081526020015f205f8282546101d99190610538565b925050819055505f3373ffffffffffffffffffffffffffffffffffffffff168260405161020590610598565b5f6040518083038185875af1925050503d805f811461023f576040519150601f19603f3d011682016040523d82523d5f602084013e610244565b606091505b5050905080610288576040517f08c379a000000000000000000000000000000000000000000000000000000000815260040161027f906105f6565b60405180910390fd5b5050565b60015481565b5f81116102d4576040517f08c379a00000000000000000000000000000000000000000000000000000000081526004016102cb9061065e565b60405180910390fd5b803414610316576040517f08c379a000000000000000000000000000000000000000000000000000000000815260040161030d906106ec565b60405180910390fd5b8060015f828254610327919061070a565b925050819055508060025f3373ffffffffffffffffffffffffffffffffffffffff1673ffffffffffffffffffffffffffffffffffffffff1681526020019081526020015f205f82825461037a919061070a565b9250508190555050565b5f5ffd5b5f73ffffffffffffffffffffffffffffffffffffffff82169050919050565b5f6103b182610388565b9050919050565b6103c1816103a7565b81146103cb575f5ffd5b50565b5f813590506103dc816103b8565b92915050565b5f602082840312156103f7576103f6610384565b5b5f610404848285016103ce565b91505092915050565b5f819050919050565b61041f8161040d565b82525050565b5f6020820190506104385f830184610416565b92915050565b6104478161040d565b8114610451575f5ffd5b50565b5f813590506104628161043e565b92915050565b5f6020828403121561047d5761047c610384565b5b5f61048a84828501610454565b91505092915050565b5f82825260208201905092915050565b7f4e6f7420656e6f7567682062616c616e636500000000000000000000000000005f82015250565b5f6104d7601283610493565b91506104e2826104a3565b602082019050919050565b5f6020820190508181035f830152610504816104cb565b9050919050565b7f4e487b71000000000000000000000000000000000000000000000000000000005f52601160045260245ffd5b5f6105428261040d565b915061054d8361040d565b92508282039050818111156105655761056461050b565b5b92915050565b5f81905092915050565b50565b5f6105835f8361056b565b915061058e82610575565b5f82019050919050565b5f6105a282610578565b9150819050919050565b7f5472616e73666572206661696c656400000000000000000000000000000000005f82015250565b5f6105e0600f83610493565b91506105eb826105ac565b602082019050919050565b5f6020820190508181035f83015261060d816105d4565b9050919050565b7f416d6f756e74206d7573742062652067726561746572207468616e20300000005f82015250565b5f610648601d83610493565b915061065382610614565b602082019050919050565b5f6020820190508181035f8301526106758161063c565b9050919050565b7f416d6f756e74206d75737420626520657175616c20746f206d73672e76616c755f8201527f6500000000000000000000000000000000000000000000000000000000000000602082015250565b5f6106d6602183610493565b91506106e18261067c565b604082019050919050565b5f6020820190508181035f830152610703816106ca565b9050919050565b5f6107148261040d565b915061071f8361040d565b92508282019050808211156107375761073661050b565b5b9291505056fea2646970667358221220dded0d90fab7ef68461924805ce4bcfac452e33be2838f18a136abe2cf307e5c64736f6c63430008210033","linkReferences":{}},"methodIdentifiers":{"stake(uint256)":"a694fc3a","stakedBalances(address)":"1460fa87","totalStaked()":"817b1cd2","unstake(uint256)":"2e17de78"},"id":21}