{"abi":[{"type":"function","name":"stake","inputs":[{"name":"amount","type":"uint256","internalType":"uint256"}],"outputs":[],"stateMutability":"payable"},{"type":"function","name":"stakedBalance","inputs":[{"name":"","type":"address","internalType":"address"}],"outputs":[{"name":"","type":"uint256","internalType":"uint256"}],"stateMutability":"view"},{"type":"function","name":"totalStaked","inputs":[],"outputs":[{"name":"","type":"uint256","internalType":"uint256"}],"stateMutability":"view"},{"type":"function","name":"unstake","inputs":[{"name":"amount","type":"uint256","internalType":"uint256"}],"outputs":[],"stateMutability":"payable"}],"bytecode":{"object":"0x6080604052348015600e575f5ffd5b506107738061001c5f395ff3fe60806040526004361061003e575f3560e01c80632e17de7814610042578063602172671461005e578063817b1cd21461009a578063a694fc3a146100c4575b5f5ffd5b61005c600480360381019061005791906103bb565b6100e0565b005b348015610069575f5ffd5b50610084600480360381019061007f9190610440565b610277565b604051610091919061047a565b60405180910390f35b3480156100a5575f5ffd5b506100ae61028c565b6040516100bb919061047a565b60405180910390f35b6100de60048036038101906100d991906103bb565b610292565b005b60025f3373ffffffffffffffffffffffffffffffffffffffff1673ffffffffffffffffffffffffffffffffffffffff1681526020019081526020015f2054811115610160576040517f08c379a0000000000000000000000000000000000000000000000000000000008152600401610157906104ed565b60405180910390fd5b8060015f8282546101719190610538565b925050819055508060025f3373ffffffffffffffffffffffffffffffffffffffff1673ffffffffffffffffffffffffffffffffffffffff1681526020019081526020015f205f8282546101c49190610538565b925050819055505f3373ffffffffffffffffffffffffffffffffffffffff16826040516101f090610598565b5f6040518083038185875af1925050503d805f811461022a576040519150601f19603f3d011682016040523d82523d5f602084013e61022f565b606091505b5050905080610273576040517f08c379a000000000000000000000000000000000000000000000000000000000815260040161026a906105f6565b60405180910390fd5b5050565b6002602052805f5260405f205f915090505481565b60015481565b5f81116102d4576040517f08c379a00000000000000000000000000000000000000000000000000000000081526004016102cb9061065e565b60405180910390fd5b803414610316576040517f08c379a000000000000000000000000000000000000000000000000000000000815260040161030d906106ec565b60405180910390fd5b8060015f828254610327919061070a565b925050819055508060025f3373ffffffffffffffffffffffffffffffffffffffff1673ffffffffffffffffffffffffffffffffffffffff1681526020019081526020015f205f82825461037a919061070a565b9250508190555050565b5f5ffd5b5f819050919050565b61039a81610388565b81146103a4575f5ffd5b50565b5f813590506103b581610391565b92915050565b5f602082840312156103d0576103cf610384565b5b5f6103dd848285016103a7565b91505092915050565b5f73ffffffffffffffffffffffffffffffffffffffff82169050919050565b5f61040f826103e6565b9050919050565b61041f81610405565b8114610429575f5ffd5b50565b5f8135905061043a81610416565b92915050565b5f6020828403121561045557610454610384565b5b5f6104628482850161042c565b91505092915050565b61047481610388565b82525050565b5f60208201905061048d5f83018461046b565b92915050565b5f82825260208201905092915050565b7f4e6f7420656e6f7567682062616c616e636500000000000000000000000000005f82015250565b5f6104d7601283610493565b91506104e2826104a3565b602082019050919050565b5f6020820190508181035f830152610504816104cb565b9050919050565b7f4e487b71000000000000000000000000000000000000000000000000000000005f52601160045260245ffd5b5f61054282610388565b915061054d83610388565b92508282039050818111156105655761056461050b565b5b92915050565b5f81905092915050565b50565b5f6105835f8361056b565b915061058e82610575565b5f82019050919050565b5f6105a282610578565b9150819050919050565b7f5472616e73666572206661696c656400000000000000000000000000000000005f82015250565b5f6105e0600f83610493565b91506105eb826105ac565b602082019050919050565b5f6020820190508181035f83015261060d816105d4565b9050919050565b7f416d6f756e74206d7573742062652067726561746572207468616e20300000005f82015250565b5f610648601d83610493565b915061065382610614565b602082019050919050565b5f6020820190508181035f8301526106758161063c565b9050919050565b7f416d6f756e74206d75737420626520657175616c20746f206d73672e76616c755f8201527f6500000000000000000000000000000000000000000000000000000000000000602082015250565b5f6106d6602183610493565b91506106e18261067c565b604082019050919050565b5f6020820190508181035f830152610703816106ca565b9050919050565b5f61071482610388565b915061071f83610388565b92508282019050808211156107375761073661050b565b5b9291505056fea264697066735822122000a220aeaa6a3012c99cc1dd39a88addc6506879627df1ca31879a341f63307264736f6c63430008210033","linkReferences":{}},"methodIdentifiers":{"stake(uint256)":"a694fc3a","stakedBalance(address)":"60217267","totalStaked()":"817b1cd2","unstake(uint256)":"2e17de78"},"id":21}