{"abi":[{"type":"constructor","inputs":[{"name":"_implementation","type":"address","internalType":"address"}],"stateMutability":"nonpayable"},{"type":"fallback","stateMutability":"payable"},{"type":"receive","stateMutability":"payable"},{"type":"function","name":"implementation","inputs":[],"outputs":[{"name":"","type":"address","internalType":"address"}],"stateMutability":"view"},{"type":"function","name":"owner","inputs":[],"outputs":[{"name":"","type":"address","internalType":"address"}],"stateMutability":"view"},{"type":"function","name":"renounceOwnership","inputs":[],"outputs":[],"stateMutability":"nonpayable"},{"type":"function","name":"setImplementation","inputs":[{"name":"_implementation","type":"address","internalType":"address"}],"outputs":[],"stateMutability":"nonpayable"},{"type":"function","name":"stakedBalance","inputs":[{"name":"","type":"address","internalType":"address"}],"outputs":[{"name":"","type":"uint256","internalType":"uint256"}],"stateMutability":"view"},{"type":"function","name":"totalStaked","inputs":[],"outputs":[{"name":"","type":"uint256","internalType":"uint256"}],"stateMutability":"view"},{"type":"function","name":"transferOwnership","inputs":[{"name":"newOwner","type":"address","internalType":"address"}],"outputs":[],"stateMutability":"nonpayable"},{"type":"event","name":"OwnershipTransferred","inputs":[{"name":"previousOwner","type":"address","indexed":true,"internalType":"address"},{"name":"newOwner","type":"address","indexed":true,"internalType":"address"}],"anonymous":false},{"type":"error","name":"OwnableInvalidOwner","inputs":[{"name":"owner","type":"address","internalType":"address"}]},{"type":"error","name":"OwnableUnauthorizedAccount","inputs":[{"name":"account","type":"address","internalType":"address"}]}],"bytecode":{"object":"0x608060405234801561000f575f5ffd5b50604051610a56380380610a5683398181016040528101906100319190610217565b335f73ffffffffffffffffffffffffffffffffffffffff168173ffffffffffffffffffffffffffffffffffffffff16036100a2575f6040517f1e4fbdf70000000000000000000000000000000000000000000000000000000081526004016100999190610251565b60405180910390fd5b6100b1816100f860201b60201c565b508060035f6101000a81548173ffffffffffffffffffffffffffffffffffffffff021916908373ffffffffffffffffffffffffffffffffffffffff1602179055505061026a565b5f5f5f9054906101000a900473ffffffffffffffffffffffffffffffffffffffff169050815f5f6101000a81548173ffffffffffffffffffffffffffffffffffffffff021916908373ffffffffffffffffffffffffffffffffffffffff1602179055508173ffffffffffffffffffffffffffffffffffffffff168173ffffffffffffffffffffffffffffffffffffffff167f8be0079c531659141344cd1fd0a4f28419497f9722a3daafe3b4186f6b6457e060405160405180910390a35050565b5f5ffd5b5f73ffffffffffffffffffffffffffffffffffffffff82169050919050565b5f6101e6826101bd565b9050919050565b6101f6816101dc565b8114610200575f5ffd5b50565b5f81519050610211816101ed565b92915050565b5f6020828403121561022c5761022b6101b9565b5b5f61023984828501610203565b91505092915050565b61024b816101dc565b82525050565b5f6020820190506102645f830184610242565b92915050565b6107df806102775f395ff3fe608060405260043610610073575f3560e01c8063817b1cd21161004d578063817b1cd2146102885780638da5cb5b146102b2578063d784d426146102dc578063f2fde38b1461030457610140565b80635c60da1b1461020c5780636021726714610236578063715018a61461027257610140565b36610140575f60035f9054906101000a900473ffffffffffffffffffffffffffffffffffffffff1673ffffffffffffffffffffffffffffffffffffffff166040516100bd906105f1565b5f60405180830381855af49150503d805f81146100f5576040519150601f19603f3d011682016040523d82523d5f602084013e6100fa565b606091505b505090508061013e576040517f08c379a00000000000000000000000000000000000000000000000000000000081526004016101359061065f565b60405180910390fd5b005b5f60035f9054906101000a900473ffffffffffffffffffffffffffffffffffffffff1673ffffffffffffffffffffffffffffffffffffffff165f366040516101899291906106af565b5f60405180830381855af49150503d805f81146101c1576040519150601f19603f3d011682016040523d82523d5f602084013e6101c6565b606091505b505090508061020a576040517f08c379a00000000000000000000000000000000000000000000000000000000081526004016102019061065f565b60405180910390fd5b005b348015610217575f5ffd5b5061022061032c565b60405161022d9190610706565b60405180910390f35b348015610241575f5ffd5b5061025c6004803603810190610257919061074d565b610351565b6040516102699190610790565b60405180910390f35b34801561027d575f5ffd5b50610286610366565b005b348015610293575f5ffd5b5061029c610379565b6040516102a99190610790565b60405180910390f35b3480156102bd575f5ffd5b506102c661037f565b6040516102d39190610706565b60405180910390f35b3480156102e7575f5ffd5b5061030260048036038101906102fd919061074d565b6103a6565b005b34801561030f575f5ffd5b5061032a6004803603810190610325919061074d565b6103f1565b005b60035f9054906101000a900473ffffffffffffffffffffffffffffffffffffffff1681565b6002602052805f5260405f205f915090505481565b61036e610475565b6103775f6104fc565b565b60015481565b5f5f5f9054906101000a900473ffffffffffffffffffffffffffffffffffffffff16905090565b6103ae610475565b8060035f6101000a81548173ffffffffffffffffffffffffffffffffffffffff021916908373ffffffffffffffffffffffffffffffffffffffff16021790555050565b6103f9610475565b5f73ffffffffffffffffffffffffffffffffffffffff168173ffffffffffffffffffffffffffffffffffffffff1603610469575f6040517f1e4fbdf70000000000000000000000000000000000000000000000000000000081526004016104609190610706565b60405180910390fd5b610472816104fc565b50565b61047d6105bd565b73ffffffffffffffffffffffffffffffffffffffff1661049b61037f565b73ffffffffffffffffffffffffffffffffffffffff16146104fa576104be6105bd565b6040517f118cdaa70000000000000000000000000000000000000000000000000000000081526004016104f19190610706565b60405180910390fd5b565b5f5f5f9054906101000a900473ffffffffffffffffffffffffffffffffffffffff169050815f5f6101000a81548173ffffffffffffffffffffffffffffffffffffffff021916908373ffffffffffffffffffffffffffffffffffffffff1602179055508173ffffffffffffffffffffffffffffffffffffffff168173ffffffffffffffffffffffffffffffffffffffff167f8be0079c531659141344cd1fd0a4f28419497f9722a3daafe3b4186f6b6457e060405160405180910390a35050565b5f33905090565b5f81905092915050565b50565b5f6105dc5f836105c4565b91506105e7826105ce565b5f82019050919050565b5f6105fb826105d1565b9150819050919050565b5f82825260208201905092915050565b7f44656c656761746543616c6c206661696c6564000000000000000000000000005f82015250565b5f610649601383610605565b915061065482610615565b602082019050919050565b5f6020820190508181035f8301526106768161063d565b9050919050565b828183375f83830152505050565b5f61069683856105c4565b93506106a383858461067d565b82840190509392505050565b5f6106bb82848661068b565b91508190509392505050565b5f73ffffffffffffffffffffffffffffffffffffffff82169050919050565b5f6106f0826106c7565b9050919050565b610700816106e6565b82525050565b5f6020820190506107195f8301846106f7565b92915050565b5f5ffd5b61072c816106e6565b8114610736575f5ffd5b50565b5f8135905061074781610723565b92915050565b5f602082840312156107625761076161071f565b5b5f61076f84828501610739565b91505092915050565b5f819050919050565b61078a81610778565b82525050565b5f6020820190506107a35f830184610781565b9291505056fea264697066735822122013585f11483e93239f3c32136456dabdd079bd96cd4e4a477502a514cf176bdc64736f6c63430008210033","linkReferences":{}},"methodIdentifiers":{"implementation()":"5c60da1b","owner()":"8da5cb5b","renounceOwnership()":"715018a6","setImplementation(address)":"d784d426","stakedBalance(address)":"60217267","totalStaked()":"817b1cd2","transferOwnership(address)":"f2fde38b"},"id":22}