{"abi":[{"type":"constructor","inputs":[{"name":"_implementation","type":"address","internalType":"address"}],"stateMutability":"nonpayable"},{"type":"fallback","stateMutability":"payable"},{"type":"function","name":"implementation","inputs":[],"outputs":[{"name":"","type":"address","internalType":"address"}],"stateMutability":"view"},{"type":"function","name":"owner","inputs":[],"outputs":[{"name":"","type":"address","internalType":"address"}],"stateMutability":"view"},{"type":"function","name":"renounceOwnership","inputs":[],"outputs":[],"stateMutability":"nonpayable"},{"type":"function","name":"setImplementation","inputs":[{"name":"_implementation","type":"address","internalType":"address"}],"outputs":[],"stateMutability":"nonpayable"},{"type":"function","name":"stakedBalances","inputs":[{"name":"","type":"address","internalType":"address"}],"outputs":[{"name":"","type":"uint256","internalType":"uint256"}],"stateMutability":"view"},{"type":"function","name":"totalStaked","inputs":[],"outputs":[{"name":"","type":"uint256","internalType":"uint256"}],"stateMutability":"view"},{"type":"function","name":"transferOwnership","inputs":[{"name":"newOwner","type":"address","internalType":"address"}],"outputs":[],"stateMutability":"nonpayable"},{"type":"event","name":"OwnershipTransferred","inputs":[{"name":"previousOwner","type":"address","indexed":true,"internalType":"address"},{"name":"newOwner","type":"address","indexed":true,"internalType":"address"}],"anonymous":false},{"type":"error","name":"OwnableInvalidOwner","inputs":[{"name":"owner","type":"address","internalType":"address"}]},{"type":"error","name":"OwnableUnauthorizedAccount","inputs":[{"name":"account","type":"address","internalType":"address"}]}],"bytecode":{"object":"0x608060405234801561000f575f5ffd5b5060405161095338038061095383398181016040528101906100319190610217565b335f73ffffffffffffffffffffffffffffffffffffffff168173ffffffffffffffffffffffffffffffffffffffff16036100a2575f6040517f1e4fbdf70000000000000000000000000000000000000000000000000000000081526004016100999190610251565b60405180910390fd5b6100b1816100f860201b60201c565b508060035f6101000a81548173ffffffffffffffffffffffffffffffffffffffff021916908373ffffffffffffffffffffffffffffffffffffffff1602179055505061026a565b5f5f5f9054906101000a900473ffffffffffffffffffffffffffffffffffffffff169050815f5f6101000a81548173ffffffffffffffffffffffffffffffffffffffff021916908373ffffffffffffffffffffffffffffffffffffffff1602179055508173ffffffffffffffffffffffffffffffffffffffff168173ffffffffffffffffffffffffffffffffffffffff167f8be0079c531659141344cd1fd0a4f28419497f9722a3daafe3b4186f6b6457e060405160405180910390a35050565b5f5ffd5b5f73ffffffffffffffffffffffffffffffffffffffff82169050919050565b5f6101e6826101bd565b9050919050565b6101f6816101dc565b8114610200575f5ffd5b50565b5f81519050610211816101ed565b92915050565b5f6020828403121561022c5761022b6101b9565b5b5f61023984828501610203565b91505092915050565b61024b816101dc565b82525050565b5f6020820190506102645f830184610242565b92915050565b6106dc806102775f395ff3fe608060405260043610610073575f3560e01c8063817b1cd21161004d578063817b1cd2146101bc5780638da5cb5b146101e6578063d784d42614610210578063f2fde38b1461023857610074565b80631460fa87146101405780635c60da1b1461017c578063715018a6146101a657610074565b5b5f60035f9054906101000a900473ffffffffffffffffffffffffffffffffffffffff1673ffffffffffffffffffffffffffffffffffffffff165f366040516100bd929190610534565b5f60405180830381855af49150503d805f81146100f5576040519150601f19603f3d011682016040523d82523d5f602084013e6100fa565b606091505b505090508061013e576040517f08c379a0000000000000000000000000000000000000000000000000000000008152600401610135906105a6565b60405180910390fd5b005b34801561014b575f5ffd5b5061016660048036038101906101619190610622565b610260565b6040516101739190610665565b60405180910390f35b348015610187575f5ffd5b50610190610275565b60405161019d919061068d565b60405180910390f35b3480156101b1575f5ffd5b506101ba61029a565b005b3480156101c7575f5ffd5b506101d06102ad565b6040516101dd9190610665565b60405180910390f35b3480156101f1575f5ffd5b506101fa6102b3565b604051610207919061068d565b60405180910390f35b34801561021b575f5ffd5b5061023660048036038101906102319190610622565b6102da565b005b348015610243575f5ffd5b5061025e60048036038101906102599190610622565b610325565b005b6002602052805f5260405f205f915090505481565b60035f9054906101000a900473ffffffffffffffffffffffffffffffffffffffff1681565b6102a26103a9565b6102ab5f610430565b565b60015481565b5f5f5f9054906101000a900473ffffffffffffffffffffffffffffffffffffffff16905090565b6102e26103a9565b8060035f6101000a81548173ffffffffffffffffffffffffffffffffffffffff021916908373ffffffffffffffffffffffffffffffffffffffff16021790555050565b61032d6103a9565b5f73ffffffffffffffffffffffffffffffffffffffff168173ffffffffffffffffffffffffffffffffffffffff160361039d575f6040517f1e4fbdf7000000000000000000000000000000000000000000000000000000008152600401610394919061068d565b60405180910390fd5b6103a681610430565b50565b6103b16104f1565b73ffffffffffffffffffffffffffffffffffffffff166103cf6102b3565b73ffffffffffffffffffffffffffffffffffffffff161461042e576103f26104f1565b6040517f118cdaa7000000000000000000000000000000000000000000000000000000008152600401610425919061068d565b60405180910390fd5b565b5f5f5f9054906101000a900473ffffffffffffffffffffffffffffffffffffffff169050815f5f6101000a81548173ffffffffffffffffffffffffffffffffffffffff021916908373ffffffffffffffffffffffffffffffffffffffff1602179055508173ffffffffffffffffffffffffffffffffffffffff168173ffffffffffffffffffffffffffffffffffffffff167f8be0079c531659141344cd1fd0a4f28419497f9722a3daafe3b4186f6b6457e060405160405180910390a35050565b5f33905090565b5f81905092915050565b828183375f83830152505050565b5f61051b83856104f8565b9350610528838584610502565b82840190509392505050565b5f610540828486610510565b91508190509392505050565b5f82825260208201905092915050565b7f44656c656761746563616c6c206661696c6564000000000000000000000000005f82015250565b5f61059060138361054c565b915061059b8261055c565b602082019050919050565b5f6020820190508181035f8301526105bd81610584565b9050919050565b5f5ffd5b5f73ffffffffffffffffffffffffffffffffffffffff82169050919050565b5f6105f1826105c8565b9050919050565b610601816105e7565b811461060b575f5ffd5b50565b5f8135905061061c816105f8565b92915050565b5f60208284031215610637576106366105c4565b5b5f6106448482850161060e565b91505092915050565b5f819050919050565b61065f8161064d565b82525050565b5f6020820190506106785f830184610656565b92915050565b610687816105e7565b82525050565b5f6020820190506106a05f83018461067e565b9291505056fea2646970667358221220466947f531dc9d86e0e486a3213f85d6c551b2cb59467e7b52deaf5c2474125864736f6c63430008210033","linkReferences":{}},"methodIdentifiers":{"implementation()":"5c60da1b","owner()":"8da5cb5b","renounceOwnership()":"715018a6","setImplementation(address)":"d784d426","stakedBalances(address)":"1460fa87","totalStaked()":"817b1cd2","transferOwnership(address)":"f2fde38b"},"id":22}