{"abi":[{"type":"function","name":"UPGRADE_INTERFACE_VERSION","inputs":[],"outputs":[{"name":"","type":"string","internalType":"string"}],"stateMutability":"view"},{"type":"function","name":"claimReward","inputs":[],"outputs":[],"stateMutability":"nonpayable"},{"type":"function","name":"initialize","inputs":[{"name":"_rewardToken","type":"address","internalType":"address"}],"outputs":[],"stateMutability":"nonpayable"},{"type":"function","name":"lastUpdated","inputs":[{"name":"","type":"address","internalType":"address"}],"outputs":[{"name":"","type":"uint256","internalType":"uint256"}],"stateMutability":"view"},{"type":"function","name":"owner","inputs":[],"outputs":[{"name":"","type":"address","internalType":"address"}],"stateMutability":"view"},{"type":"function","name":"proxiableUUID","inputs":[],"outputs":[{"name":"","type":"bytes32","internalType":"bytes32"}],"stateMutability":"view"},{"type":"function","name":"renounceOwnership","inputs":[],"outputs":[],"stateMutability":"nonpayable"},{"type":"function","name":"rewardToken","inputs":[],"outputs":[{"name":"","type":"address","internalType":"contract StakeX"}],"stateMutability":"view"},{"type":"function","name":"stake","inputs":[{"name":"lockDuration","type":"uint256","internalType":"uint256"}],"outputs":[],"stateMutability":"payable"},{"type":"function","name":"stakeBalance","inputs":[{"name":"","type":"address","internalType":"address"}],"outputs":[{"name":"","type":"uint256","internalType":"uint256"}],"stateMutability":"view"},{"type":"function","name":"totalStaked","inputs":[],"outputs":[{"name":"","type":"uint256","internalType":"uint256"}],"stateMutability":"view"},{"type":"function","name":"transferOwnership","inputs":[{"name":"newOwner","type":"address","internalType":"address"}],"outputs":[],"stateMutability":"nonpayable"},{"type":"function","name":"unStakeTime","inputs":[{"name":"","type":"address","internalType":"address"}],"outputs":[{"name":"","type":"uint256","internalType":"uint256"}],"stateMutability":"view"},{"type":"function","name":"unstake","inputs":[],"outputs":[],"stateMutability":"payable"},{"type":"function","name":"upgradeToAndCall","inputs":[{"name":"newImplementation","type":"address","internalType":"address"},{"name":"data","type":"bytes","internalType":"bytes"}],"outputs":[],"stateMutability":"payable"},{"type":"function","name":"userRewards","inputs":[{"name":"","type":"address","internalType":"address"}],"outputs":[{"name":"","type":"uint256","internalType":"uint256"}],"stateMutability":"view"},{"type":"event","name":"Initialized","inputs":[{"name":"version","type":"uint64","indexed":false,"internalType":"uint64"}],"anonymous":false},{"type":"event","name":"OwnershipTransferred","inputs":[{"name":"previousOwner","type":"address","indexed":true,"internalType":"address"},{"name":"newOwner","type":"address","indexed":true,"internalType":"address"}],"anonymous":false},{"type":"event","name":"Upgraded","inputs":[{"name":"implementation","type":"address","indexed":true,"internalType":"address"}],"anonymous":false},{"type":"error","name":"AddressEmptyCode","inputs":[{"name":"target","type":"address","internalType":"address"}]},{"type":"error","name":"ERC1967InvalidImplementation","inputs":[{"name":"implementation","type":"address","internalType":"address"}]},{"type":"error","name":"ERC1967NonPayable","inputs":[]},{"type":"error","name":"FailedCall","inputs":[]},{"type":"error","name":"InvalidInitialization","inputs":[]},{"type":"error","name":"NotInitializing","inputs":[]},{"type":"error","name":"OwnableInvalidOwner","inputs":[{"name":"owner","type":"address","internalType":"address"}]},{"type":"error","name":"OwnableUnauthorizedAccount","inputs":[{"name":"account","type":"address","internalType":"address"}]},{"type":"error","name":"UUPSUnauthorizedCallContext","inputs":[]},{"type":"error","name":"UUPSUnsupportedProxiableUUID","inputs":[{"name":"slot","type":"bytes32","internalType":"bytes32"}]}],"bytecode":{"object":"0x60a06040523073ffffffffffffffffffffffffffffffffffffffff1660809073ffffffffffffffffffffffffffffffffffffffff168152503480156041575f5ffd5b50608051611dfa6100685f395f8181610d7f01528181610dd40152610f8e0152611dfa5ff3fe6080604052600436106100f2575f3560e01c8063817b1cd211610089578063b88a802f11610058578063b88a802f146102e6578063c4d66de8146102fc578063f2fde38b14610324578063f7c618c11461034c576100f2565b8063817b1cd21461024c5780638da5cb5b14610276578063a694fc3a146102a0578063ad3cb1cc146102bc576100f2565b80634f1ef286116100c55780634f1ef286146101b457806352d1902d146101d057806354f39436146101fa578063715018a614610236576100f2565b80630660f1e8146100f65780630a6f93e6146101325780632def66201461016e5780634e7c57a614610178575b5f5ffd5b348015610101575f5ffd5b5061011c6004803603810190610117919061163d565b610376565b6040516101299190611680565b60405180910390f35b34801561013d575f5ffd5b506101586004803603810190610153919061163d565b61038b565b6040516101659190611680565b60405180910390f35b6101766103a0565b005b348015610183575f5ffd5b5061019e6004803603810190610199919061163d565b6105b1565b6040516101ab9190611680565b60405180910390f35b6101ce60048036038101906101c991906117d5565b6105c6565b005b3480156101db575f5ffd5b506101e46105e5565b6040516101f19190611847565b60405180910390f35b348015610205575f5ffd5b50610220600480360381019061021b919061163d565b610616565b60405161022d9190611680565b60405180910390f35b348015610241575f5ffd5b5061024a61062b565b005b348015610257575f5ffd5b5061026061063e565b60405161026d9190611680565b60405180910390f35b348015610281575f5ffd5b5061028a610643565b604051610297919061186f565b60405180910390f35b6102ba60048036038101906102b591906118b2565b610678565b005b3480156102c7575f5ffd5b506102d06107d3565b6040516102dd919061193d565b60405180910390f35b3480156102f1575f5ffd5b506102fa61080c565b005b348015610307575f5ffd5b50610322600480360381019061031d919061163d565b610966565b005b34801561032f575f5ffd5b5061034a6004803603810190610345919061163d565b610b27565b005b348015610357575f5ffd5b50610360610bab565b60405161036d91906119b8565b60405180910390f35b6003602052805f5260405f205f915090505481565b6004602052805f5260405f205f915090505481565b60025f3373ffffffffffffffffffffffffffffffffffffffff1673ffffffffffffffffffffffffffffffffffffffff1681526020019081526020015f2054421015610420576040517f08c379a000000000000000000000000000000000000000000000000000000000815260040161041790611a1b565b60405180910390fd5b5f60015f3373ffffffffffffffffffffffffffffffffffffffff1673ffffffffffffffffffffffffffffffffffffffff1681526020019081526020015f2054905061046a33610bd0565b5f60015f3373ffffffffffffffffffffffffffffffffffffffff1673ffffffffffffffffffffffffffffffffffffffff1681526020019081526020015f2081905550805f5f8282546104bc9190611a66565b925050819055505f60025f3373ffffffffffffffffffffffffffffffffffffffff1673ffffffffffffffffffffffffffffffffffffffff1681526020019081526020015f20819055505f3373ffffffffffffffffffffffffffffffffffffffff168260405161052a90611ac6565b5f6040518083038185875af1925050503d805f8114610564576040519150601f19603f3d011682016040523d82523d5f602084013e610569565b606091505b50509050806105ad576040517f08c379a00000000000000000000000000000000000000000000000000000000081526004016105a490611b24565b60405180910390fd5b5050565b6001602052805f5260405f205f915090505481565b6105ce610d7d565b6105d782610e63565b6105e18282610e6e565b5050565b5f6105ee610f8c565b7f360894a13ba1a3210667c828492db98dca3e2076cc3735a920a3ca505d382bbc5f1b905090565b6002602052805f5260405f205f915090505481565b610633611013565b61063c5f61109a565b565b5f5481565b5f5f61064d61116b565b9050805f015f9054906101000a900473ffffffffffffffffffffffffffffffffffffffff1691505090565b5f34116106ba576040517f08c379a00000000000000000000000000000000000000000000000000000000081526004016106b190611b8c565b60405180910390fd5b6106c333610bd0565b345f5f8282546106d39190611baa565b925050819055503460015f3373ffffffffffffffffffffffffffffffffffffffff1673ffffffffffffffffffffffffffffffffffffffff1681526020019081526020015f205f8282546107269190611baa565b925050819055505f814261073a9190611baa565b905060025f3373ffffffffffffffffffffffffffffffffffffffff1673ffffffffffffffffffffffffffffffffffffffff1681526020019081526020015f20548111156107cf57814261078d9190611baa565b60025f3373ffffffffffffffffffffffffffffffffffffffff1673ffffffffffffffffffffffffffffffffffffffff1681526020019081526020015f20819055505b5050565b6040518060400160405280600581526020017f352e302e3000000000000000000000000000000000000000000000000000000081525081565b61081533610bd0565b5f60035f3373ffffffffffffffffffffffffffffffffffffffff1673ffffffffffffffffffffffffffffffffffffffff1681526020019081526020015f205490505f8111610898576040517f08c379a000000000000000000000000000000000000000000000000000000000815260040161088f90611c27565b60405180910390fd5b5f60035f3373ffffffffffffffffffffffffffffffffffffffff1673ffffffffffffffffffffffffffffffffffffffff1681526020019081526020015f208190555060055f9054906101000a900473ffffffffffffffffffffffffffffffffffffffff1673ffffffffffffffffffffffffffffffffffffffff166340c10f1933836040518363ffffffff1660e01b8152600401610936929190611c45565b5f604051808303815f87803b15801561094d575f5ffd5b505af115801561095f573d5f5f3e3d5ffd5b5050505050565b5f61096f611192565b90505f815f0160089054906101000a900460ff161590505f825f015f9054906101000a900467ffffffffffffffff1690505f5f8267ffffffffffffffff161480156109b75750825b90505f60018367ffffffffffffffff161480156109ea57505f3073ffffffffffffffffffffffffffffffffffffffff163b145b9050811580156109f8575080155b15610a2f576040517ff92ee8a900000000000000000000000000000000000000000000000000000000815260040160405180910390fd5b6001855f015f6101000a81548167ffffffffffffffff021916908367ffffffffffffffff1602179055508315610a7c576001855f0160086101000a81548160ff0219169083151502179055505b610a85336111a5565b8560055f6101000a81548173ffffffffffffffffffffffffffffffffffffffff021916908373ffffffffffffffffffffffffffffffffffffffff1602179055508315610b1f575f855f0160086101000a81548160ff0219169083151502179055507fc7f505b2f371ae2175ee4913f4499e1f2633a7b5936321eed1cdaeb6115181d26001604051610b169190611cb8565b60405180910390a15b505050505050565b610b2f611013565b5f73ffffffffffffffffffffffffffffffffffffffff168173ffffffffffffffffffffffffffffffffffffffff1603610b9f575f6040517f1e4fbdf7000000000000000000000000000000000000000000000000000000008152600401610b96919061186f565b60405180910390fd5b610ba88161109a565b50565b60055f9054906101000a900473ffffffffffffffffffffffffffffffffffffffff1681565b5f60015f8373ffffffffffffffffffffffffffffffffffffffff1673ffffffffffffffffffffffffffffffffffffffff1681526020019081526020015f205490505f8103610c60574260045f8473ffffffffffffffffffffffffffffffffffffffff1673ffffffffffffffffffffffffffffffffffffffff1681526020019081526020015f208190555050610d7a565b5f60045f8473ffffffffffffffffffffffffffffffffffffffff1673ffffffffffffffffffffffffffffffffffffffff1681526020019081526020015f205442610caa9190611a66565b90505f6777e772392b600000670de0b6b3a76400008385610ccb9190611cd1565b610cd59190611cd1565b610cdf9190611d3f565b90508060035f8673ffffffffffffffffffffffffffffffffffffffff1673ffffffffffffffffffffffffffffffffffffffff1681526020019081526020015f205f828254610d2d9190611baa565b925050819055504260045f8673ffffffffffffffffffffffffffffffffffffffff1673ffffffffffffffffffffffffffffffffffffffff1681526020019081526020015f20819055505050505b50565b7f000000000000000000000000000000000000000000000000000000000000000073ffffffffffffffffffffffffffffffffffffffff163073ffffffffffffffffffffffffffffffffffffffff161480610e2a57507f000000000000000000000000000000000000000000000000000000000000000073ffffffffffffffffffffffffffffffffffffffff16610e116111b9565b73ffffffffffffffffffffffffffffffffffffffff1614155b15610e61576040517fe07c8dba00000000000000000000000000000000000000000000000000000000815260040160405180910390fd5b565b610e6b611013565b50565b8173ffffffffffffffffffffffffffffffffffffffff166352d1902d6040518163ffffffff1660e01b8152600401602060405180830381865afa925050508015610ed657506040513d601f19601f82011682018060405250810190610ed39190611d99565b60015b610f1757816040517f4c9c8ce3000000000000000000000000000000000000000000000000000000008152600401610f0e919061186f565b60405180910390fd5b7f360894a13ba1a3210667c828492db98dca3e2076cc3735a920a3ca505d382bbc5f1b8114610f7d57806040517faa1d49a4000000000000000000000000000000000000000000000000000000008152600401610f749190611847565b60405180910390fd5b610f87838361120c565b505050565b7f000000000000000000000000000000000000000000000000000000000000000073ffffffffffffffffffffffffffffffffffffffff163073ffffffffffffffffffffffffffffffffffffffff1614611011576040517fe07c8dba00000000000000000000000000000000000000000000000000000000815260040160405180910390fd5b565b61101b61127e565b73ffffffffffffffffffffffffffffffffffffffff16611039610643565b73ffffffffffffffffffffffffffffffffffffffff16146110985761105c61127e565b6040517f118cdaa700000000000000000000000000000000000000000000000000000000815260040161108f919061186f565b60405180910390fd5b565b5f6110a361116b565b90505f815f015f9054906101000a900473ffffffffffffffffffffffffffffffffffffffff16905082825f015f6101000a81548173ffffffffffffffffffffffffffffffffffffffff021916908373ffffffffffffffffffffffffffffffffffffffff1602179055508273ffffffffffffffffffffffffffffffffffffffff168173ffffffffffffffffffffffffffffffffffffffff167f8be0079c531659141344cd1fd0a4f28419497f9722a3daafe3b4186f6b6457e060405160405180910390a3505050565b5f7f9016d09d72d40fdae2fd8ceac6b6234c7706214fd39c1cd1e609a0528c199300905090565b5f5f61119c611285565b90508091505090565b6111ad6112ae565b6111b6816112ee565b50565b5f6111e57f360894a13ba1a3210667c828492db98dca3e2076cc3735a920a3ca505d382bbc5f1b611372565b5f015f9054906101000a900473ffffffffffffffffffffffffffffffffffffffff16905090565b6112158261137b565b8173ffffffffffffffffffffffffffffffffffffffff167fbc7cd75a20ee27fd9adebab32041f755214dbc6bffa90cc0225b39da2e5c2d3b60405160405180910390a25f815111156112715761126b8282611444565b5061127a565b611279611535565b5b5050565b5f33905090565b5f7ff0c57e16840df040f15088dc2f81fe391c3923bec73e23a9662efc9c229c6a005f1b905090565b6112b6611571565b6112ec576040517fd7e6bcf800000000000000000000000000000000000000000000000000000000815260040160405180910390fd5b565b6112f66112ae565b5f73ffffffffffffffffffffffffffffffffffffffff168173ffffffffffffffffffffffffffffffffffffffff1603611366575f6040517f1e4fbdf700000000000000000000000000000000000000000000000000000000815260040161135d919061186f565b60405180910390fd5b61136f8161109a565b50565b5f819050919050565b5f8173ffffffffffffffffffffffffffffffffffffffff163b036113d657806040517f4c9c8ce30000000000000000000000000000000000000000000000000000000081526004016113cd919061186f565b60405180910390fd5b806114027f360894a13ba1a3210667c828492db98dca3e2076cc3735a920a3ca505d382bbc5f1b611372565b5f015f6101000a81548173ffffffffffffffffffffffffffffffffffffffff021916908373ffffffffffffffffffffffffffffffffffffffff16021790555050565b60605f611451848461158f565b905080801561148757505f6114646115a3565b118061148657505f8473ffffffffffffffffffffffffffffffffffffffff163b115b5b1561149c576114946115aa565b91505061152f565b80156114df57836040517f9996b3150000000000000000000000000000000000000000000000000000000081526004016114d6919061186f565b60405180910390fd5b5f6114e86115a3565b11156114fb576114f66115c7565b61152d565b6040517fd6bda27500000000000000000000000000000000000000000000000000000000815260040160405180910390fd5b505b92915050565b5f34111561156f576040517fb398979f00000000000000000000000000000000000000000000000000000000815260040160405180910390fd5b565b5f61157a611192565b5f0160089054906101000a900460ff16905090565b5f5f5f835160208501865af4905092915050565b5f3d905090565b606060405190503d81523d5f602083013e3d602001810160405290565b6040513d5f823e3d81fd5b5f604051905090565b5f5ffd5b5f5ffd5b5f73ffffffffffffffffffffffffffffffffffffffff82169050919050565b5f61160c826115e3565b9050919050565b61161c81611602565b8114611626575f5ffd5b50565b5f8135905061163781611613565b92915050565b5f60208284031215611652576116516115db565b5b5f61165f84828501611629565b91505092915050565b5f819050919050565b61167a81611668565b82525050565b5f6020820190506116935f830184611671565b92915050565b5f5ffd5b5f5ffd5b5f601f19601f8301169050919050565b7f4e487b71000000000000000000000000000000000000000000000000000000005f52604160045260245ffd5b6116e7826116a1565b810181811067ffffffffffffffff82111715611706576117056116b1565b5b80604052505050565b5f6117186115d2565b905061172482826116de565b919050565b5f67ffffffffffffffff821115611743576117426116b1565b5b61174c826116a1565b9050602081019050919050565b828183375f83830152505050565b5f61177961177484611729565b61170f565b9050828152602081018484840111156117955761179461169d565b5b6117a0848285611759565b509392505050565b5f82601f8301126117bc576117bb611699565b5b81356117cc848260208601611767565b91505092915050565b5f5f604083850312156117eb576117ea6115db565b5b5f6117f885828601611629565b925050602083013567ffffffffffffffff811115611819576118186115df565b5b611825858286016117a8565b9150509250929050565b5f819050919050565b6118418161182f565b82525050565b5f60208201905061185a5f830184611838565b92915050565b61186981611602565b82525050565b5f6020820190506118825f830184611860565b92915050565b61189181611668565b811461189b575f5ffd5b50565b5f813590506118ac81611888565b92915050565b5f602082840312156118c7576118c66115db565b5b5f6118d48482850161189e565b91505092915050565b5f81519050919050565b5f82825260208201905092915050565b8281835e5f83830152505050565b5f61190f826118dd565b61191981856118e7565b93506119298185602086016118f7565b611932816116a1565b840191505092915050565b5f6020820190508181035f8301526119558184611905565b905092915050565b5f819050919050565b5f61198061197b611976846115e3565b61195d565b6115e3565b9050919050565b5f61199182611966565b9050919050565b5f6119a282611987565b9050919050565b6119b281611998565b82525050565b5f6020820190506119cb5f8301846119a9565b92915050565b7f4c6f636b656400000000000000000000000000000000000000000000000000005f82015250565b5f611a056006836118e7565b9150611a10826119d1565b602082019050919050565b5f6020820190508181035f830152611a32816119f9565b9050919050565b7f4e487b71000000000000000000000000000000000000000000000000000000005f52601160045260245ffd5b5f611a7082611668565b9150611a7b83611668565b9250828203905081811115611a9357611a92611a39565b5b92915050565b5f81905092915050565b50565b5f611ab15f83611a99565b9150611abc82611aa3565b5f82019050919050565b5f611ad082611aa6565b9150819050919050565b7f45746820556e7374616b65205472616e73666572206661696c656400000000005f82015250565b5f611b0e601b836118e7565b9150611b1982611ada565b602082019050919050565b5f6020820190508181035f830152611b3b81611b02565b9050919050565b7f5a65726f205374616b65000000000000000000000000000000000000000000005f82015250565b5f611b76600a836118e7565b9150611b8182611b42565b602082019050919050565b5f6020820190508181035f830152611ba381611b6a565b9050919050565b5f611bb482611668565b9150611bbf83611668565b9250828201905080821115611bd757611bd6611a39565b5b92915050565b7f4e6f20636c61696d61626c6520726577617264207965740000000000000000005f82015250565b5f611c116017836118e7565b9150611c1c82611bdd565b602082019050919050565b5f6020820190508181035f830152611c3e81611c05565b9050919050565b5f604082019050611c585f830185611860565b611c656020830184611671565b9392505050565b5f819050919050565b5f67ffffffffffffffff82169050919050565b5f611ca2611c9d611c9884611c6c565b61195d565b611c75565b9050919050565b611cb281611c88565b82525050565b5f602082019050611ccb5f830184611ca9565b92915050565b5f611cdb82611668565b9150611ce683611668565b9250828202611cf481611668565b91508282048414831517611d0b57611d0a611a39565b5b5092915050565b7f4e487b71000000000000000000000000000000000000000000000000000000005f52601260045260245ffd5b5f611d4982611668565b9150611d5483611668565b925082611d6457611d63611d12565b5b828204905092915050565b611d788161182f565b8114611d82575f5ffd5b50565b5f81519050611d9381611d6f565b92915050565b5f60208284031215611dae57611dad6115db565b5b5f611dbb84828501611d85565b9150509291505056fea26469706673582212207aff9618ef74f74da1ce419086da91fc779d5bfc035ebf30999e99bbe2cc8ecf64736f6c63430008210033","linkReferences":{}},"methodIdentifiers":{"UPGRADE_INTERFACE_VERSION()":"ad3cb1cc","claimReward()":"b88a802f","initialize(address)":"c4d66de8","lastUpdated(address)":"0a6f93e6","owner()":"8da5cb5b","proxiableUUID()":"52d1902d","renounceOwnership()":"715018a6","rewardToken()":"f7c618c1","stake(uint256)":"a694fc3a","stakeBalance(address)":"4e7c57a6","totalStaked()":"817b1cd2","transferOwnership(address)":"f2fde38b","unStakeTime(address)":"54f39436","unstake()":"2def6620","upgradeToAndCall(address,bytes)":"4f1ef286","userRewards(address)":"0660f1e8"},"id":42}