{"abi":[{"type":"function","name":"UPGRADE_INTERFACE_VERSION","inputs":[],"outputs":[{"name":"","type":"string","internalType":"string"}],"stateMutability":"view"},{"type":"function","name":"availableRewards","inputs":[{"name":"user","type":"address","internalType":"address"}],"outputs":[{"name":"","type":"uint256","internalType":"uint256"}],"stateMutability":"view"},{"type":"function","name":"claimReward","inputs":[],"outputs":[],"stateMutability":"nonpayable"},{"type":"function","name":"initialize","inputs":[{"name":"_rewardToken","type":"address","internalType":"address"}],"outputs":[],"stateMutability":"nonpayable"},{"type":"function","name":"lastUpdated","inputs":[{"name":"","type":"address","internalType":"address"}],"outputs":[{"name":"","type":"uint256","internalType":"uint256"}],"stateMutability":"view"},{"type":"function","name":"owner","inputs":[],"outputs":[{"name":"","type":"address","internalType":"address"}],"stateMutability":"view"},{"type":"function","name":"proxiableUUID","inputs":[],"outputs":[{"name":"","type":"bytes32","internalType":"bytes32"}],"stateMutability":"view"},{"type":"function","name":"renounceOwnership","inputs":[],"outputs":[],"stateMutability":"nonpayable"},{"type":"function","name":"rewardToken","inputs":[],"outputs":[{"name":"","type":"address","internalType":"contract StakeX"}],"stateMutability":"view"},{"type":"function","name":"stake","inputs":[{"name":"lockDuration","type":"uint256","internalType":"uint256"}],"outputs":[],"stateMutability":"payable"},{"type":"function","name":"stakeBalance","inputs":[{"name":"","type":"address","internalType":"address"}],"outputs":[{"name":"","type":"uint256","internalType":"uint256"}],"stateMutability":"view"},{"type":"function","name":"syncReward","inputs":[],"outputs":[],"stateMutability":"nonpayable"},{"type":"function","name":"totalStaked","inputs":[],"outputs":[{"name":"","type":"uint256","internalType":"uint256"}],"stateMutability":"view"},{"type":"function","name":"transferOwnership","inputs":[{"name":"newOwner","type":"address","internalType":"address"}],"outputs":[],"stateMutability":"nonpayable"},{"type":"function","name":"unStakeTime","inputs":[{"name":"","type":"address","internalType":"address"}],"outputs":[{"name":"","type":"uint256","internalType":"uint256"}],"stateMutability":"view"},{"type":"function","name":"unstake","inputs":[],"outputs":[],"stateMutability":"payable"},{"type":"function","name":"upgradeToAndCall","inputs":[{"name":"newImplementation","type":"address","internalType":"address"},{"name":"data","type":"bytes","internalType":"bytes"}],"outputs":[],"stateMutability":"payable"},{"type":"function","name":"userRewards","inputs":[{"name":"","type":"address","internalType":"address"}],"outputs":[{"name":"","type":"uint256","internalType":"uint256"}],"stateMutability":"view"},{"type":"event","name":"Initialized","inputs":[{"name":"version","type":"uint64","indexed":false,"internalType":"uint64"}],"anonymous":false},{"type":"event","name":"OwnershipTransferred","inputs":[{"name":"previousOwner","type":"address","indexed":true,"internalType":"address"},{"name":"newOwner","type":"address","indexed":true,"internalType":"address"}],"anonymous":false},{"type":"event","name":"Upgraded","inputs":[{"name":"implementation","type":"address","indexed":true,"internalType":"address"}],"anonymous":false},{"type":"error","name":"AddressEmptyCode","inputs":[{"name":"target","type":"address","internalType":"address"}]},{"type":"error","name":"ERC1967InvalidImplementation","inputs":[{"name":"implementation","type":"address","internalType":"address"}]},{"type":"error","name":"ERC1967NonPayable","inputs":[]},{"type":"error","name":"FailedCall","inputs":[]},{"type":"error","name":"InvalidInitialization","inputs":[]},{"type":"error","name":"NotInitializing","inputs":[]},{"type":"error","name":"OwnableInvalidOwner","inputs":[{"name":"owner","type":"address","internalType":"address"}]},{"type":"error","name":"OwnableUnauthorizedAccount","inputs":[{"name":"account","type":"address","internalType":"address"}]},{"type":"error","name":"UUPSUnauthorizedCallContext","inputs":[]},{"type":"error","name":"UUPSUnsupportedProxiableUUID","inputs":[{"name":"slot","type":"bytes32","internalType":"bytes32"}]}],"bytecode":{"object":"0x60a06040523073ffffffffffffffffffffffffffffffffffffffff1660809073ffffffffffffffffffffffffffffffffffffffff168152503480156041575f5ffd5b50608051611f946100685f395f8181610f1901528181610f6e01526111280152611f945ff3fe608060405260043610610108575f3560e01c80638da5cb5b11610094578063c4474a5911610063578063c4474a5914610312578063c4d66de814610328578063f2fde38b14610350578063f7c618c114610378578063f854a27f146103a257610108565b80638da5cb5b1461028c578063a694fc3a146102b6578063ad3cb1cc146102d2578063b88a802f146102fc57610108565b80634f1ef286116100db5780634f1ef286146101ca57806352d1902d146101e657806354f3943614610210578063715018a61461024c578063817b1cd21461026257610108565b80630660f1e81461010c5780630a6f93e6146101485780632def6620146101845780634e7c57a61461018e575b5f5ffd5b348015610117575f5ffd5b50610132600480360381019061012d91906117d7565b6103de565b60405161013f919061181a565b60405180910390f35b348015610153575f5ffd5b5061016e600480360381019061016991906117d7565b6103f3565b60405161017b919061181a565b60405180910390f35b61018c610408565b005b348015610199575f5ffd5b506101b460048036038101906101af91906117d7565b610619565b6040516101c1919061181a565b60405180910390f35b6101e460048036038101906101df919061196f565b61062e565b005b3480156101f1575f5ffd5b506101fa61064d565b60405161020791906119e1565b60405180910390f35b34801561021b575f5ffd5b50610236600480360381019061023191906117d7565b61067e565b604051610243919061181a565b60405180910390f35b348015610257575f5ffd5b50610260610693565b005b34801561026d575f5ffd5b506102766106a6565b604051610283919061181a565b60405180910390f35b348015610297575f5ffd5b506102a06106ab565b6040516102ad9190611a09565b60405180910390f35b6102d060048036038101906102cb9190611a4c565b6106e0565b005b3480156102dd575f5ffd5b506102e661083b565b6040516102f39190611ad7565b60405180910390f35b348015610307575f5ffd5b50610310610874565b005b34801561031d575f5ffd5b506103266109ce565b005b348015610333575f5ffd5b5061034e600480360381019061034991906117d7565b6109d9565b005b34801561035b575f5ffd5b50610376600480360381019061037191906117d7565b610b9a565b005b348015610383575f5ffd5b5061038c610c1e565b6040516103999190611b52565b60405180910390f35b3480156103ad575f5ffd5b506103c860048036038101906103c391906117d7565b610c43565b6040516103d5919061181a565b60405180910390f35b6003602052805f5260405f205f915090505481565b6004602052805f5260405f205f915090505481565b60025f3373ffffffffffffffffffffffffffffffffffffffff1673ffffffffffffffffffffffffffffffffffffffff1681526020019081526020015f2054421015610488576040517f08c379a000000000000000000000000000000000000000000000000000000000815260040161047f90611bb5565b60405180910390fd5b5f60015f3373ffffffffffffffffffffffffffffffffffffffff1673ffffffffffffffffffffffffffffffffffffffff1681526020019081526020015f205490506104d233610d6a565b5f60015f3373ffffffffffffffffffffffffffffffffffffffff1673ffffffffffffffffffffffffffffffffffffffff1681526020019081526020015f2081905550805f5f8282546105249190611c00565b925050819055505f60025f3373ffffffffffffffffffffffffffffffffffffffff1673ffffffffffffffffffffffffffffffffffffffff1681526020019081526020015f20819055505f3373ffffffffffffffffffffffffffffffffffffffff168260405161059290611c60565b5f6040518083038185875af1925050503d805f81146105cc576040519150601f19603f3d011682016040523d82523d5f602084013e6105d1565b606091505b5050905080610615576040517f08c379a000000000000000000000000000000000000000000000000000000000815260040161060c90611cbe565b60405180910390fd5b5050565b6001602052805f5260405f205f915090505481565b610636610f17565b61063f82610ffd565b6106498282611008565b5050565b5f610656611126565b7f360894a13ba1a3210667c828492db98dca3e2076cc3735a920a3ca505d382bbc5f1b905090565b6002602052805f5260405f205f915090505481565b61069b6111ad565b6106a45f611234565b565b5f5481565b5f5f6106b5611305565b9050805f015f9054906101000a900473ffffffffffffffffffffffffffffffffffffffff1691505090565b5f3411610722576040517f08c379a000000000000000000000000000000000000000000000000000000000815260040161071990611d26565b60405180910390fd5b61072b33610d6a565b345f5f82825461073b9190611d44565b925050819055503460015f3373ffffffffffffffffffffffffffffffffffffffff1673ffffffffffffffffffffffffffffffffffffffff1681526020019081526020015f205f82825461078e9190611d44565b925050819055505f81426107a29190611d44565b905060025f3373ffffffffffffffffffffffffffffffffffffffff1673ffffffffffffffffffffffffffffffffffffffff1681526020019081526020015f20548111156108375781426107f59190611d44565b60025f3373ffffffffffffffffffffffffffffffffffffffff1673ffffffffffffffffffffffffffffffffffffffff1681526020019081526020015f20819055505b5050565b6040518060400160405280600581526020017f352e302e3000000000000000000000000000000000000000000000000000000081525081565b61087d33610d6a565b5f60035f3373ffffffffffffffffffffffffffffffffffffffff1673ffffffffffffffffffffffffffffffffffffffff1681526020019081526020015f205490505f8111610900576040517f08c379a00000000000000000000000000000000000000000000000000000000081526004016108f790611dc1565b60405180910390fd5b5f60035f3373ffffffffffffffffffffffffffffffffffffffff1673ffffffffffffffffffffffffffffffffffffffff1681526020019081526020015f208190555060055f9054906101000a900473ffffffffffffffffffffffffffffffffffffffff1673ffffffffffffffffffffffffffffffffffffffff166340c10f1933836040518363ffffffff1660e01b815260040161099e929190611ddf565b5f604051808303815f87803b1580156109b5575f5ffd5b505af11580156109c7573d5f5f3e3d5ffd5b5050505050565b6109d733610d6a565b565b5f6109e261132c565b90505f815f0160089054906101000a900460ff161590505f825f015f9054906101000a900467ffffffffffffffff1690505f5f8267ffffffffffffffff16148015610a2a5750825b90505f60018367ffffffffffffffff16148015610a5d57505f3073ffffffffffffffffffffffffffffffffffffffff163b145b905081158015610a6b575080155b15610aa2576040517ff92ee8a900000000000000000000000000000000000000000000000000000000815260040160405180910390fd5b6001855f015f6101000a81548167ffffffffffffffff021916908367ffffffffffffffff1602179055508315610aef576001855f0160086101000a81548160ff0219169083151502179055505b610af83361133f565b8560055f6101000a81548173ffffffffffffffffffffffffffffffffffffffff021916908373ffffffffffffffffffffffffffffffffffffffff1602179055508315610b92575f855f0160086101000a81548160ff0219169083151502179055507fc7f505b2f371ae2175ee4913f4499e1f2633a7b5936321eed1cdaeb6115181d26001604051610b899190611e52565b60405180910390a15b505050505050565b610ba26111ad565b5f73ffffffffffffffffffffffffffffffffffffffff168173ffffffffffffffffffffffffffffffffffffffff1603610c12575f6040517f1e4fbdf7000000000000000000000000000000000000000000000000000000008152600401610c099190611a09565b60405180910390fd5b610c1b81611234565b50565b60055f9054906101000a900473ffffffffffffffffffffffffffffffffffffffff1681565b5f5f60015f8473ffffffffffffffffffffffffffffffffffffffff1673ffffffffffffffffffffffffffffffffffffffff1681526020019081526020015f205490505f8103610c95575f915050610d65565b5f60045f8573ffffffffffffffffffffffffffffffffffffffff1673ffffffffffffffffffffffffffffffffffffffff1681526020019081526020015f205442610cdf9190611c00565b90505f6777e772392b600000670de0b6b3a76400008385610d009190611e6b565b610d0a9190611e6b565b610d149190611ed9565b90508060035f8773ffffffffffffffffffffffffffffffffffffffff1673ffffffffffffffffffffffffffffffffffffffff1681526020019081526020015f2054610d5f9190611d44565b93505050505b919050565b5f60015f8373ffffffffffffffffffffffffffffffffffffffff1673ffffffffffffffffffffffffffffffffffffffff1681526020019081526020015f205490505f8103610dfa574260045f8473ffffffffffffffffffffffffffffffffffffffff1673ffffffffffffffffffffffffffffffffffffffff1681526020019081526020015f208190555050610f14565b5f60045f8473ffffffffffffffffffffffffffffffffffffffff1673ffffffffffffffffffffffffffffffffffffffff1681526020019081526020015f205442610e449190611c00565b90505f6777e772392b600000670de0b6b3a76400008385610e659190611e6b565b610e6f9190611e6b565b610e799190611ed9565b90508060035f8673ffffffffffffffffffffffffffffffffffffffff1673ffffffffffffffffffffffffffffffffffffffff1681526020019081526020015f205f828254610ec79190611d44565b925050819055504260045f8673ffffffffffffffffffffffffffffffffffffffff1673ffffffffffffffffffffffffffffffffffffffff1681526020019081526020015f20819055505050505b50565b7f000000000000000000000000000000000000000000000000000000000000000073ffffffffffffffffffffffffffffffffffffffff163073ffffffffffffffffffffffffffffffffffffffff161480610fc457507f000000000000000000000000000000000000000000000000000000000000000073ffffffffffffffffffffffffffffffffffffffff16610fab611353565b73ffffffffffffffffffffffffffffffffffffffff1614155b15610ffb576040517fe07c8dba00000000000000000000000000000000000000000000000000000000815260040160405180910390fd5b565b6110056111ad565b50565b8173ffffffffffffffffffffffffffffffffffffffff166352d1902d6040518163ffffffff1660e01b8152600401602060405180830381865afa92505050801561107057506040513d601f19601f8201168201806040525081019061106d9190611f33565b60015b6110b157816040517f4c9c8ce30000000000000000000000000000000000000000000000000000000081526004016110a89190611a09565b60405180910390fd5b7f360894a13ba1a3210667c828492db98dca3e2076cc3735a920a3ca505d382bbc5f1b811461111757806040517faa1d49a400000000000000000000000000000000000000000000000000000000815260040161110e91906119e1565b60405180910390fd5b61112183836113a6565b505050565b7f000000000000000000000000000000000000000000000000000000000000000073ffffffffffffffffffffffffffffffffffffffff163073ffffffffffffffffffffffffffffffffffffffff16146111ab576040517fe07c8dba00000000000000000000000000000000000000000000000000000000815260040160405180910390fd5b565b6111b5611418565b73ffffffffffffffffffffffffffffffffffffffff166111d36106ab565b73ffffffffffffffffffffffffffffffffffffffff1614611232576111f6611418565b6040517f118cdaa70000000000000000000000000000000000000000000000000000000081526004016112299190611a09565b60405180910390fd5b565b5f61123d611305565b90505f815f015f9054906101000a900473ffffffffffffffffffffffffffffffffffffffff16905082825f015f6101000a81548173ffffffffffffffffffffffffffffffffffffffff021916908373ffffffffffffffffffffffffffffffffffffffff1602179055508273ffffffffffffffffffffffffffffffffffffffff168173ffffffffffffffffffffffffffffffffffffffff167f8be0079c531659141344cd1fd0a4f28419497f9722a3daafe3b4186f6b6457e060405160405180910390a3505050565b5f7f9016d09d72d40fdae2fd8ceac6b6234c7706214fd39c1cd1e609a0528c199300905090565b5f5f61133661141f565b90508091505090565b611347611448565b61135081611488565b50565b5f61137f7f360894a13ba1a3210667c828492db98dca3e2076cc3735a920a3ca505d382bbc5f1b61150c565b5f015f9054906101000a900473ffffffffffffffffffffffffffffffffffffffff16905090565b6113af82611515565b8173ffffffffffffffffffffffffffffffffffffffff167fbc7cd75a20ee27fd9adebab32041f755214dbc6bffa90cc0225b39da2e5c2d3b60405160405180910390a25f8151111561140b5761140582826115de565b50611414565b6114136116cf565b5b5050565b5f33905090565b5f7ff0c57e16840df040f15088dc2f81fe391c3923bec73e23a9662efc9c229c6a005f1b905090565b61145061170b565b611486576040517fd7e6bcf800000000000000000000000000000000000000000000000000000000815260040160405180910390fd5b565b611490611448565b5f73ffffffffffffffffffffffffffffffffffffffff168173ffffffffffffffffffffffffffffffffffffffff1603611500575f6040517f1e4fbdf70000000000000000000000000000000000000000000000000000000081526004016114f79190611a09565b60405180910390fd5b61150981611234565b50565b5f819050919050565b5f8173ffffffffffffffffffffffffffffffffffffffff163b0361157057806040517f4c9c8ce30000000000000000000000000000000000000000000000000000000081526004016115679190611a09565b60405180910390fd5b8061159c7f360894a13ba1a3210667c828492db98dca3e2076cc3735a920a3ca505d382bbc5f1b61150c565b5f015f6101000a81548173ffffffffffffffffffffffffffffffffffffffff021916908373ffffffffffffffffffffffffffffffffffffffff16021790555050565b60605f6115eb8484611729565b905080801561162157505f6115fe61173d565b118061162057505f8473ffffffffffffffffffffffffffffffffffffffff163b115b5b156116365761162e611744565b9150506116c9565b801561167957836040517f9996b3150000000000000000000000000000000000000000000000000000000081526004016116709190611a09565b60405180910390fd5b5f61168261173d565b111561169557611690611761565b6116c7565b6040517fd6bda27500000000000000000000000000000000000000000000000000000000815260040160405180910390fd5b505b92915050565b5f341115611709576040517fb398979f00000000000000000000000000000000000000000000000000000000815260040160405180910390fd5b565b5f61171461132c565b5f0160089054906101000a900460ff16905090565b5f5f5f835160208501865af4905092915050565b5f3d905090565b606060405190503d81523d5f602083013e3d602001810160405290565b6040513d5f823e3d81fd5b5f604051905090565b5f5ffd5b5f5ffd5b5f73ffffffffffffffffffffffffffffffffffffffff82169050919050565b5f6117a68261177d565b9050919050565b6117b68161179c565b81146117c0575f5ffd5b50565b5f813590506117d1816117ad565b92915050565b5f602082840312156117ec576117eb611775565b5b5f6117f9848285016117c3565b91505092915050565b5f819050919050565b61181481611802565b82525050565b5f60208201905061182d5f83018461180b565b92915050565b5f5ffd5b5f5ffd5b5f601f19601f8301169050919050565b7f4e487b71000000000000000000000000000000000000000000000000000000005f52604160045260245ffd5b6118818261183b565b810181811067ffffffffffffffff821117156118a05761189f61184b565b5b80604052505050565b5f6118b261176c565b90506118be8282611878565b919050565b5f67ffffffffffffffff8211156118dd576118dc61184b565b5b6118e68261183b565b9050602081019050919050565b828183375f83830152505050565b5f61191361190e846118c3565b6118a9565b90508281526020810184848401111561192f5761192e611837565b5b61193a8482856118f3565b509392505050565b5f82601f83011261195657611955611833565b5b8135611966848260208601611901565b91505092915050565b5f5f6040838503121561198557611984611775565b5b5f611992858286016117c3565b925050602083013567ffffffffffffffff8111156119b3576119b2611779565b5b6119bf85828601611942565b9150509250929050565b5f819050919050565b6119db816119c9565b82525050565b5f6020820190506119f45f8301846119d2565b92915050565b611a038161179c565b82525050565b5f602082019050611a1c5f8301846119fa565b92915050565b611a2b81611802565b8114611a35575f5ffd5b50565b5f81359050611a4681611a22565b92915050565b5f60208284031215611a6157611a60611775565b5b5f611a6e84828501611a38565b91505092915050565b5f81519050919050565b5f82825260208201905092915050565b8281835e5f83830152505050565b5f611aa982611a77565b611ab38185611a81565b9350611ac3818560208601611a91565b611acc8161183b565b840191505092915050565b5f6020820190508181035f830152611aef8184611a9f565b905092915050565b5f819050919050565b5f611b1a611b15611b108461177d565b611af7565b61177d565b9050919050565b5f611b2b82611b00565b9050919050565b5f611b3c82611b21565b9050919050565b611b4c81611b32565b82525050565b5f602082019050611b655f830184611b43565b92915050565b7f4c6f636b656400000000000000000000000000000000000000000000000000005f82015250565b5f611b9f600683611a81565b9150611baa82611b6b565b602082019050919050565b5f6020820190508181035f830152611bcc81611b93565b9050919050565b7f4e487b71000000000000000000000000000000000000000000000000000000005f52601160045260245ffd5b5f611c0a82611802565b9150611c1583611802565b9250828203905081811115611c2d57611c2c611bd3565b5b92915050565b5f81905092915050565b50565b5f611c4b5f83611c33565b9150611c5682611c3d565b5f82019050919050565b5f611c6a82611c40565b9150819050919050565b7f45746820556e7374616b65205472616e73666572206661696c656400000000005f82015250565b5f611ca8601b83611a81565b9150611cb382611c74565b602082019050919050565b5f6020820190508181035f830152611cd581611c9c565b9050919050565b7f5a65726f205374616b65000000000000000000000000000000000000000000005f82015250565b5f611d10600a83611a81565b9150611d1b82611cdc565b602082019050919050565b5f6020820190508181035f830152611d3d81611d04565b9050919050565b5f611d4e82611802565b9150611d5983611802565b9250828201905080821115611d7157611d70611bd3565b5b92915050565b7f4e6f20636c61696d61626c6520726577617264207965740000000000000000005f82015250565b5f611dab601783611a81565b9150611db682611d77565b602082019050919050565b5f6020820190508181035f830152611dd881611d9f565b9050919050565b5f604082019050611df25f8301856119fa565b611dff602083018461180b565b9392505050565b5f819050919050565b5f67ffffffffffffffff82169050919050565b5f611e3c611e37611e3284611e06565b611af7565b611e0f565b9050919050565b611e4c81611e22565b82525050565b5f602082019050611e655f830184611e43565b92915050565b5f611e7582611802565b9150611e8083611802565b9250828202611e8e81611802565b91508282048414831517611ea557611ea4611bd3565b5b5092915050565b7f4e487b71000000000000000000000000000000000000000000000000000000005f52601260045260245ffd5b5f611ee382611802565b9150611eee83611802565b925082611efe57611efd611eac565b5b828204905092915050565b611f12816119c9565b8114611f1c575f5ffd5b50565b5f81519050611f2d81611f09565b92915050565b5f60208284031215611f4857611f47611775565b5b5f611f5584828501611f1f565b9150509291505056fea26469706673582212208d3c20c60a462009c6347f893c88357efe736e4dcf855328ef0499195e1bd47664736f6c63430008210033","linkReferences":{}},"methodIdentifiers":{"UPGRADE_INTERFACE_VERSION()":"ad3cb1cc","availableRewards(address)":"f854a27f","claimReward()":"b88a802f","initialize(address)":"c4d66de8","lastUpdated(address)":"0a6f93e6","owner()":"8da5cb5b","proxiableUUID()":"52d1902d","renounceOwnership()":"715018a6","rewardToken()":"f7c618c1","stake(uint256)":"a694fc3a","stakeBalance(address)":"4e7c57a6","syncReward()":"c4474a59","totalStaked()":"817b1cd2","transferOwnership(address)":"f2fde38b","unStakeTime(address)":"54f39436","unstake()":"2def6620","upgradeToAndCall(address,bytes)":"4f1ef286","userRewards(address)":"0660f1e8"},"id":42}