{"abi":[{"type":"function","name":"UPGRADE_INTERFACE_VERSION","inputs":[],"outputs":[{"name":"","type":"string","internalType":"string"}],"stateMutability":"view"},{"type":"function","name":"claimReward","inputs":[],"outputs":[],"stateMutability":"nonpayable"},{"type":"function","name":"initialize","inputs":[{"name":"_rewardToken","type":"address","internalType":"address"}],"outputs":[],"stateMutability":"nonpayable"},{"type":"function","name":"owner","inputs":[],"outputs":[{"name":"","type":"address","internalType":"address"}],"stateMutability":"view"},{"type":"function","name":"proxiableUUID","inputs":[],"outputs":[{"name":"","type":"bytes32","internalType":"bytes32"}],"stateMutability":"view"},{"type":"function","name":"renounceOwnership","inputs":[],"outputs":[],"stateMutability":"nonpayable"},{"type":"function","name":"rewardToken","inputs":[],"outputs":[{"name":"","type":"address","internalType":"contract StakeX"}],"stateMutability":"view"},{"type":"function","name":"stake","inputs":[{"name":"lockDuration","type":"uint256","internalType":"uint256"}],"outputs":[],"stateMutability":"payable"},{"type":"function","name":"totalStaked","inputs":[],"outputs":[{"name":"","type":"uint256","internalType":"uint256"}],"stateMutability":"view"},{"type":"function","name":"transferOwnership","inputs":[{"name":"newOwner","type":"address","internalType":"address"}],"outputs":[],"stateMutability":"nonpayable"},{"type":"function","name":"unStakeTime","inputs":[{"name":"","type":"address","internalType":"address"}],"outputs":[{"name":"","type":"uint256","internalType":"uint256"}],"stateMutability":"view"},{"type":"function","name":"unstake","inputs":[],"outputs":[],"stateMutability":"payable"},{"type":"function","name":"upgradeToAndCall","inputs":[{"name":"newImplementation","type":"address","internalType":"address"},{"name":"data","type":"bytes","internalType":"bytes"}],"outputs":[],"stateMutability":"payable"},{"type":"event","name":"Initialized","inputs":[{"name":"version","type":"uint64","indexed":false,"internalType":"uint64"}],"anonymous":false},{"type":"event","name":"OwnershipTransferred","inputs":[{"name":"previousOwner","type":"address","indexed":true,"internalType":"address"},{"name":"newOwner","type":"address","indexed":true,"internalType":"address"}],"anonymous":false},{"type":"event","name":"Upgraded","inputs":[{"name":"implementation","type":"address","indexed":true,"internalType":"address"}],"anonymous":false},{"type":"error","name":"AddressEmptyCode","inputs":[{"name":"target","type":"address","internalType":"address"}]},{"type":"error","name":"ERC1967InvalidImplementation","inputs":[{"name":"implementation","type":"address","internalType":"address"}]},{"type":"error","name":"ERC1967NonPayable","inputs":[]},{"type":"error","name":"FailedCall","inputs":[]},{"type":"error","name":"InvalidInitialization","inputs":[]},{"type":"error","name":"NotInitializing","inputs":[]},{"type":"error","name":"OwnableInvalidOwner","inputs":[{"name":"owner","type":"address","internalType":"address"}]},{"type":"error","name":"OwnableUnauthorizedAccount","inputs":[{"name":"account","type":"address","internalType":"address"}]},{"type":"error","name":"UUPSUnauthorizedCallContext","inputs":[]},{"type":"error","name":"UUPSUnsupportedProxiableUUID","inputs":[{"name":"slot","type":"bytes32","internalType":"bytes32"}]}],"bytecode":{"object":"0x60a06040523073ffffffffffffffffffffffffffffffffffffffff1660809073ffffffffffffffffffffffffffffffffffffffff168152503480156041575f5ffd5b50608051611dbe6100685f395f8181610cdb01528181610d300152610eea0152611dbe5ff3fe6080604052600436106100c1575f3560e01c80638da5cb5b1161007e578063b88a802f11610058578063b88a802f14610201578063c4d66de814610217578063f2fde38b1461023f578063f7c618c114610267576100c1565b80638da5cb5b14610191578063a694fc3a146101bb578063ad3cb1cc146101d7576100c1565b80632def6620146100c55780634f1ef286146100cf57806352d1902d146100eb57806354f3943614610115578063715018a614610151578063817b1cd214610167575b5f5ffd5b6100cd610291565b005b6100e960048036038101906100e491906116d5565b6104a2565b005b3480156100f6575f5ffd5b506100ff6104c1565b60405161010c9190611747565b60405180910390f35b348015610120575f5ffd5b5061013b60048036038101906101369190611760565b6104f2565b60405161014891906117a3565b60405180910390f35b34801561015c575f5ffd5b50610165610507565b005b348015610172575f5ffd5b5061017b61051a565b60405161018891906117a3565b60405180910390f35b34801561019c575f5ffd5b506101a561051f565b6040516101b291906117cb565b60405180910390f35b6101d560048036038101906101d0919061180e565b610554565b005b3480156101e2575f5ffd5b506101eb6106af565b6040516101f89190611899565b60405180910390f35b34801561020c575f5ffd5b506102156106e8565b005b348015610222575f5ffd5b5061023d60048036038101906102389190611760565b6108c2565b005b34801561024a575f5ffd5b5061026560048036038101906102609190611760565b610a83565b005b348015610272575f5ffd5b5061027b610b07565b6040516102889190611914565b60405180910390f35b60025f3373ffffffffffffffffffffffffffffffffffffffff1673ffffffffffffffffffffffffffffffffffffffff1681526020019081526020015f2054421015610311576040517f08c379a000000000000000000000000000000000000000000000000000000000815260040161030890611977565b60405180910390fd5b5f60015f3373ffffffffffffffffffffffffffffffffffffffff1673ffffffffffffffffffffffffffffffffffffffff1681526020019081526020015f2054905061035b33610b2c565b5f60015f3373ffffffffffffffffffffffffffffffffffffffff1673ffffffffffffffffffffffffffffffffffffffff1681526020019081526020015f2081905550805f5f8282546103ad91906119c2565b925050819055505f60025f3373ffffffffffffffffffffffffffffffffffffffff1673ffffffffffffffffffffffffffffffffffffffff1681526020019081526020015f20819055505f3373ffffffffffffffffffffffffffffffffffffffff168260405161041b90611a22565b5f6040518083038185875af1925050503d805f8114610455576040519150601f19603f3d011682016040523d82523d5f602084013e61045a565b606091505b505090508061049e576040517f08c379a000000000000000000000000000000000000000000000000000000000815260040161049590611a80565b60405180910390fd5b5050565b6104aa610cd9565b6104b382610dbf565b6104bd8282610dca565b5050565b5f6104ca610ee8565b7f360894a13ba1a3210667c828492db98dca3e2076cc3735a920a3ca505d382bbc5f1b905090565b6002602052805f5260405f205f915090505481565b61050f610f6f565b6105185f610ff6565b565b5f5481565b5f5f6105296110c7565b9050805f015f9054906101000a900473ffffffffffffffffffffffffffffffffffffffff1691505090565b5f3411610596576040517f08c379a000000000000000000000000000000000000000000000000000000000815260040161058d90611ae8565b60405180910390fd5b61059f33610b2c565b345f5f8282546105af9190611b06565b925050819055503460015f3373ffffffffffffffffffffffffffffffffffffffff1673ffffffffffffffffffffffffffffffffffffffff1681526020019081526020015f205f8282546106029190611b06565b925050819055505f81426106169190611b06565b905060025f3373ffffffffffffffffffffffffffffffffffffffff1673ffffffffffffffffffffffffffffffffffffffff1681526020019081526020015f20548111156106ab5781426106699190611b06565b60025f3373ffffffffffffffffffffffffffffffffffffffff1673ffffffffffffffffffffffffffffffffffffffff1681526020019081526020015f20819055505b5050565b6040518060400160405280600581526020017f352e302e3000000000000000000000000000000000000000000000000000000081525081565b60025f3373ffffffffffffffffffffffffffffffffffffffff1673ffffffffffffffffffffffffffffffffffffffff1681526020019081526020015f2054421015610768576040517f08c379a000000000000000000000000000000000000000000000000000000000815260040161075f90611b83565b60405180910390fd5b61077133610b2c565b5f60035f3373ffffffffffffffffffffffffffffffffffffffff1673ffffffffffffffffffffffffffffffffffffffff1681526020019081526020015f205490505f81116107f4576040517f08c379a00000000000000000000000000000000000000000000000000000000081526004016107eb90611beb565b60405180910390fd5b5f60035f3373ffffffffffffffffffffffffffffffffffffffff1673ffffffffffffffffffffffffffffffffffffffff1681526020019081526020015f208190555060055f9054906101000a900473ffffffffffffffffffffffffffffffffffffffff1673ffffffffffffffffffffffffffffffffffffffff166340c10f1933836040518363ffffffff1660e01b8152600401610892929190611c09565b5f604051808303815f87803b1580156108a9575f5ffd5b505af11580156108bb573d5f5f3e3d5ffd5b5050505050565b5f6108cb6110ee565b90505f815f0160089054906101000a900460ff161590505f825f015f9054906101000a900467ffffffffffffffff1690505f5f8267ffffffffffffffff161480156109135750825b90505f60018367ffffffffffffffff1614801561094657505f3073ffffffffffffffffffffffffffffffffffffffff163b145b905081158015610954575080155b1561098b576040517ff92ee8a900000000000000000000000000000000000000000000000000000000815260040160405180910390fd5b6001855f015f6101000a81548167ffffffffffffffff021916908367ffffffffffffffff16021790555083156109d8576001855f0160086101000a81548160ff0219169083151502179055505b6109e133611101565b8560055f6101000a81548173ffffffffffffffffffffffffffffffffffffffff021916908373ffffffffffffffffffffffffffffffffffffffff1602179055508315610a7b575f855f0160086101000a81548160ff0219169083151502179055507fc7f505b2f371ae2175ee4913f4499e1f2633a7b5936321eed1cdaeb6115181d26001604051610a729190611c7c565b60405180910390a15b505050505050565b610a8b610f6f565b5f73ffffffffffffffffffffffffffffffffffffffff168173ffffffffffffffffffffffffffffffffffffffff1603610afb575f6040517f1e4fbdf7000000000000000000000000000000000000000000000000000000008152600401610af291906117cb565b60405180910390fd5b610b0481610ff6565b50565b60055f9054906101000a900473ffffffffffffffffffffffffffffffffffffffff1681565b5f60015f8373ffffffffffffffffffffffffffffffffffffffff1673ffffffffffffffffffffffffffffffffffffffff1681526020019081526020015f205490505f8103610bbc574260045f8473ffffffffffffffffffffffffffffffffffffffff1673ffffffffffffffffffffffffffffffffffffffff1681526020019081526020015f208190555050610cd6565b5f60045f8473ffffffffffffffffffffffffffffffffffffffff1673ffffffffffffffffffffffffffffffffffffffff1681526020019081526020015f205442610c0691906119c2565b90505f6777e772392b600000670de0b6b3a76400008385610c279190611c95565b610c319190611c95565b610c3b9190611d03565b90508060035f8673ffffffffffffffffffffffffffffffffffffffff1673ffffffffffffffffffffffffffffffffffffffff1681526020019081526020015f205f828254610c899190611b06565b925050819055504260045f8673ffffffffffffffffffffffffffffffffffffffff1673ffffffffffffffffffffffffffffffffffffffff1681526020019081526020015f20819055505050505b50565b7f000000000000000000000000000000000000000000000000000000000000000073ffffffffffffffffffffffffffffffffffffffff163073ffffffffffffffffffffffffffffffffffffffff161480610d8657507f000000000000000000000000000000000000000000000000000000000000000073ffffffffffffffffffffffffffffffffffffffff16610d6d611115565b73ffffffffffffffffffffffffffffffffffffffff1614155b15610dbd576040517fe07c8dba00000000000000000000000000000000000000000000000000000000815260040160405180910390fd5b565b610dc7610f6f565b50565b8173ffffffffffffffffffffffffffffffffffffffff166352d1902d6040518163ffffffff1660e01b8152600401602060405180830381865afa925050508015610e3257506040513d601f19601f82011682018060405250810190610e2f9190611d5d565b60015b610e7357816040517f4c9c8ce3000000000000000000000000000000000000000000000000000000008152600401610e6a91906117cb565b60405180910390fd5b7f360894a13ba1a3210667c828492db98dca3e2076cc3735a920a3ca505d382bbc5f1b8114610ed957806040517faa1d49a4000000000000000000000000000000000000000000000000000000008152600401610ed09190611747565b60405180910390fd5b610ee38383611168565b505050565b7f000000000000000000000000000000000000000000000000000000000000000073ffffffffffffffffffffffffffffffffffffffff163073ffffffffffffffffffffffffffffffffffffffff1614610f6d576040517fe07c8dba00000000000000000000000000000000000000000000000000000000815260040160405180910390fd5b565b610f776111da565b73ffffffffffffffffffffffffffffffffffffffff16610f9561051f565b73ffffffffffffffffffffffffffffffffffffffff1614610ff457610fb86111da565b6040517f118cdaa7000000000000000000000000000000000000000000000000000000008152600401610feb91906117cb565b60405180910390fd5b565b5f610fff6110c7565b90505f815f015f9054906101000a900473ffffffffffffffffffffffffffffffffffffffff16905082825f015f6101000a81548173ffffffffffffffffffffffffffffffffffffffff021916908373ffffffffffffffffffffffffffffffffffffffff1602179055508273ffffffffffffffffffffffffffffffffffffffff168173ffffffffffffffffffffffffffffffffffffffff167f8be0079c531659141344cd1fd0a4f28419497f9722a3daafe3b4186f6b6457e060405160405180910390a3505050565b5f7f9016d09d72d40fdae2fd8ceac6b6234c7706214fd39c1cd1e609a0528c199300905090565b5f5f6110f86111e1565b90508091505090565b61110961120a565b6111128161124a565b50565b5f6111417f360894a13ba1a3210667c828492db98dca3e2076cc3735a920a3ca505d382bbc5f1b6112ce565b5f015f9054906101000a900473ffffffffffffffffffffffffffffffffffffffff16905090565b611171826112d7565b8173ffffffffffffffffffffffffffffffffffffffff167fbc7cd75a20ee27fd9adebab32041f755214dbc6bffa90cc0225b39da2e5c2d3b60405160405180910390a25f815111156111cd576111c782826113a0565b506111d6565b6111d5611491565b5b5050565b5f33905090565b5f7ff0c57e16840df040f15088dc2f81fe391c3923bec73e23a9662efc9c229c6a005f1b905090565b6112126114cd565b611248576040517fd7e6bcf800000000000000000000000000000000000000000000000000000000815260040160405180910390fd5b565b61125261120a565b5f73ffffffffffffffffffffffffffffffffffffffff168173ffffffffffffffffffffffffffffffffffffffff16036112c2575f6040517f1e4fbdf70000000000000000000000000000000000000000000000000000000081526004016112b991906117cb565b60405180910390fd5b6112cb81610ff6565b50565b5f819050919050565b5f8173ffffffffffffffffffffffffffffffffffffffff163b0361133257806040517f4c9c8ce300000000000000000000000000000000000000000000000000000000815260040161132991906117cb565b60405180910390fd5b8061135e7f360894a13ba1a3210667c828492db98dca3e2076cc3735a920a3ca505d382bbc5f1b6112ce565b5f015f6101000a81548173ffffffffffffffffffffffffffffffffffffffff021916908373ffffffffffffffffffffffffffffffffffffffff16021790555050565b60605f6113ad84846114eb565b90508080156113e357505f6113c06114ff565b11806113e257505f8473ffffffffffffffffffffffffffffffffffffffff163b115b5b156113f8576113f0611506565b91505061148b565b801561143b57836040517f9996b31500000000000000000000000000000000000000000000000000000000815260040161143291906117cb565b60405180910390fd5b5f6114446114ff565b111561145757611452611523565b611489565b6040517fd6bda27500000000000000000000000000000000000000000000000000000000815260040160405180910390fd5b505b92915050565b5f3411156114cb576040517fb398979f00000000000000000000000000000000000000000000000000000000815260040160405180910390fd5b565b5f6114d66110ee565b5f0160089054906101000a900460ff16905090565b5f5f5f835160208501865af4905092915050565b5f3d905090565b606060405190503d81523d5f602083013e3d602001810160405290565b6040513d5f823e3d81fd5b5f604051905090565b5f5ffd5b5f5ffd5b5f73ffffffffffffffffffffffffffffffffffffffff82169050919050565b5f6115688261153f565b9050919050565b6115788161155e565b8114611582575f5ffd5b50565b5f813590506115938161156f565b92915050565b5f5ffd5b5f5ffd5b5f601f19601f8301169050919050565b7f4e487b71000000000000000000000000000000000000000000000000000000005f52604160045260245ffd5b6115e7826115a1565b810181811067ffffffffffffffff82111715611606576116056115b1565b5b80604052505050565b5f61161861152e565b905061162482826115de565b919050565b5f67ffffffffffffffff821115611643576116426115b1565b5b61164c826115a1565b9050602081019050919050565b828183375f83830152505050565b5f61167961167484611629565b61160f565b9050828152602081018484840111156116955761169461159d565b5b6116a0848285611659565b509392505050565b5f82601f8301126116bc576116bb611599565b5b81356116cc848260208601611667565b91505092915050565b5f5f604083850312156116eb576116ea611537565b5b5f6116f885828601611585565b925050602083013567ffffffffffffffff8111156117195761171861153b565b5b611725858286016116a8565b9150509250929050565b5f819050919050565b6117418161172f565b82525050565b5f60208201905061175a5f830184611738565b92915050565b5f6020828403121561177557611774611537565b5b5f61178284828501611585565b91505092915050565b5f819050919050565b61179d8161178b565b82525050565b5f6020820190506117b65f830184611794565b92915050565b6117c58161155e565b82525050565b5f6020820190506117de5f8301846117bc565b92915050565b6117ed8161178b565b81146117f7575f5ffd5b50565b5f81359050611808816117e4565b92915050565b5f6020828403121561182357611822611537565b5b5f611830848285016117fa565b91505092915050565b5f81519050919050565b5f82825260208201905092915050565b8281835e5f83830152505050565b5f61186b82611839565b6118758185611843565b9350611885818560208601611853565b61188e816115a1565b840191505092915050565b5f6020820190508181035f8301526118b18184611861565b905092915050565b5f819050919050565b5f6118dc6118d76118d28461153f565b6118b9565b61153f565b9050919050565b5f6118ed826118c2565b9050919050565b5f6118fe826118e3565b9050919050565b61190e816118f4565b82525050565b5f6020820190506119275f830184611905565b92915050565b7f4c6f636b656400000000000000000000000000000000000000000000000000005f82015250565b5f611961600683611843565b915061196c8261192d565b602082019050919050565b5f6020820190508181035f83015261198e81611955565b9050919050565b7f4e487b71000000000000000000000000000000000000000000000000000000005f52601160045260245ffd5b5f6119cc8261178b565b91506119d78361178b565b92508282039050818111156119ef576119ee611995565b5b92915050565b5f81905092915050565b50565b5f611a0d5f836119f5565b9150611a18826119ff565b5f82019050919050565b5f611a2c82611a02565b9150819050919050565b7f45746820556e7374616b65205472616e73666572206661696c656400000000005f82015250565b5f611a6a601b83611843565b9150611a7582611a36565b602082019050919050565b5f6020820190508181035f830152611a9781611a5e565b9050919050565b7f5a65726f205374616b65000000000000000000000000000000000000000000005f82015250565b5f611ad2600a83611843565b9150611add82611a9e565b602082019050919050565b5f6020820190508181035f830152611aff81611ac6565b9050919050565b5f611b108261178b565b9150611b1b8361178b565b9250828201905080821115611b3357611b32611995565b5b92915050565b7f6c6f636b206e6f742066696e69736865640000000000000000000000000000005f82015250565b5f611b6d601183611843565b9150611b7882611b39565b602082019050919050565b5f6020820190508181035f830152611b9a81611b61565b9050919050565b7f4e6f20636c61696d61626c6520726577617264207965740000000000000000005f82015250565b5f611bd5601783611843565b9150611be082611ba1565b602082019050919050565b5f6020820190508181035f830152611c0281611bc9565b9050919050565b5f604082019050611c1c5f8301856117bc565b611c296020830184611794565b9392505050565b5f819050919050565b5f67ffffffffffffffff82169050919050565b5f611c66611c61611c5c84611c30565b6118b9565b611c39565b9050919050565b611c7681611c4c565b82525050565b5f602082019050611c8f5f830184611c6d565b92915050565b5f611c9f8261178b565b9150611caa8361178b565b9250828202611cb88161178b565b91508282048414831517611ccf57611cce611995565b5b5092915050565b7f4e487b71000000000000000000000000000000000000000000000000000000005f52601260045260245ffd5b5f611d0d8261178b565b9150611d188361178b565b925082611d2857611d27611cd6565b5b828204905092915050565b611d3c8161172f565b8114611d46575f5ffd5b50565b5f81519050611d5781611d33565b92915050565b5f60208284031215611d7257611d71611537565b5b5f611d7f84828501611d49565b9150509291505056fea26469706673582212203471f99cbb5b01941add6c1bb9465a43ece4d20199f441ab1b3a630c37c78ff764736f6c63430008210033","linkReferences":{}},"methodIdentifiers":{"UPGRADE_INTERFACE_VERSION()":"ad3cb1cc","claimReward()":"b88a802f","initialize(address)":"c4d66de8","owner()":"8da5cb5b","proxiableUUID()":"52d1902d","renounceOwnership()":"715018a6","rewardToken()":"f7c618c1","stake(uint256)":"a694fc3a","totalStaked()":"817b1cd2","transferOwnership(address)":"f2fde38b","unStakeTime(address)":"54f39436","unstake()":"2def6620","upgradeToAndCall(address,bytes)":"4f1ef286"},"id":39}